:100000006F40A074130000001300000013000000F4
:100010001300000013000000130000001300000094
:100020001300000013000000130000001300000084
:08003000130000007300100032
:100038000000000000000000664300006A43000062
:1000480000000000904600000000000000000000D2
:1000580092460000944600000000000000000000E6
:1000680096460000000000009846000000000000CE
:100078009A4600009C4600009E460000A0460000EC
:10008800A2460000A4460000A6460000A8460000BC
:10009800AA460000AC460000AE460000F04300004F
:1000A800B2460000B4460000B6460000B84600005C
:1000B800BA460000BC460000BE460000C04600002C
:1000C800C2460000C4460000C6460000C8460000FC
:1000D800CA460000CC460000CE460000D0460000CC
:1000E8006C430000D4460000D6460000D846000005
:1000F800DA460000DC460000DE460000E04600006C
:10010800E2460000E4460000E6460000E84600003B
:10011800EA460000EC460000EE460000F04600000B
:10012800F2460000F4460000F6460000F8460000DB
:10013800FA460000FC460000FE46000000470000AA
:100148000247000004470000064700000847000077
:100158000A4700000C4700000E4700001047000047
:100168001247000014470000164700001847000017
:100178001A4700001C4700001E47000020470000E7
:1001880022470000244700002647000028470000B7
:100198002A4700002C4700002E4700003047000087
:1001A8003247000034470000364700003847000057
:1001B8003A4700003C4700003E4700004047000027
:1001C80042470000444700004647000048470000F7
:1001D8000000000000000000000000000000000017
:1001E8000000000000000000000000000000000007
:0801F8000000000000000000FF
:100200003D432A876373C3029377F700BDEFADE5E3
:10021000937606FF3D8ABA960CC34CC30CC74CC7F5
:100220004107E36BD7FE11E28280B306C3408A0622
:100230009702000096966780A6002307B700A306E2
:10024000B7002306B700A305B7002305B700A30432
:10025000B7002304B700A303B7002303B700A3022A
:10026000B7002302B700A301B7002301B700A30022
:10027000B7002300B700828093F5F50F93968500B1
:10028000D58D93960501D58D61B79396270097027A
:10029000000096968682E78086FA9680C1171D8FA9
:1002A0003E96E374C3F8A5B7397185451305D007A9
:1002B00006DE22DC26DA4AD84ED652D456D25AD09E
:1002C0005ECEEF407061B71401408D67114A93878D
:1002D00007A04C00138504402312F10052C62313DB
:1002E00001002314010023150100EF40B0250D4447
:1002F0006149930700704C00138504802312F100BC
:100300004AC622C4EF401024F9774C00138504C07C
:100310002312F1004AC622C4EF40D0229307E00F17
:100320004C00138504802312F10002C6EF40902197
:100330004C00138504C02312810002C6EF409020B8
:10034000854A4C00371501402312510102C6EF4087
:10035000701F37053880854513050520EF40D02BE9
:10036000B729014091674C00138509802312F100E1
:100370004AC622C4EF40101DE17B4C001385098062
:100380002312710152C622C4EF40D01B8545094596
:10039000EF409028930700104C00138504C02312EF
:1003A000F1004AC622C4EF40F0199307002023123F
:1003B000F1004C00F147138504C03EC622C4EF4053
:1003C000701885450545EF403025930780024C00A5
:1003D000138504C02312F1004AC622C4EF409016D0
:1003E000C1474C00138504C02312F10052C622C439
:1003F000EF40501593070008414B4C001385044013
:100400002312F1005AC622C4EF40D01313850440D2
:1004100093050008EF40D01F85452145EF40D01FD0
:10042000930700024C00138504402312F1004AC6D2
:1004300022C4EF403011930700044C0013850440A0
:100440002312F10052C622C4EF40D00F8545376514
:100450001D00EF40701C89474C0013850440231297
:10046000F1004AC622C4EF40F00D930780044C000F
:10047000138504403EC623125101EF40B00C854560
:1004800037152000EF405019856A93870A404C00C9
:10049000371501402312F1004AC622C4EF40900AEA
:1004A0004C00938A0A80371501402312510152C62D
:1004B00022C4EF4030094C001385048023127101DF
:1004C0005AC622C4EF40100813850480A165EF408E
:1004D0003014930730084C00138509802312F10073
:1004E0005AC622C4EF401006138509808545EF40A7
:1004F0003012138509808945EF409011F250625403
:10050000D2544259B259225A925A025BF24B21619B
:10051000828083978182AA9763CB070005671305C2
:10052000F7FF63D7E70013950701418182800145FA
:1005300082808397A182AA9763CB07000567130582
:10054000F7FF63D7E70013950701418182800145DA
:100550008280411126C2B724014013850440894698
:100560000546894506C622C4EF4060353734014050
:1005700013050480894605469545EF4040341385B0
:100580000440894609468D45EF40603313050480D9
:10059000894609469945EF408032138504408946D3
:1005A0000D469145EF40A0311305048089460D4664
:1005B0009D45EF40C0301385044089461146A14552
:1005C000EF40E02F1305048089461146A545EF4012
:1005D000002F13850440894615468545EF40202E9F
:1005E000130504802244B240924489461546A94529
:1005F00041016F40C02C93878188238E0730828011
:100600009387818803A7070989476314F7006F1050
:10061000607C014582809387818807A5C7378280E7
:100620009387818807A5073882809387818807A5EB
:1006300087368280411122C406C6D9371387818844
:1006400003240731032707319387818809EF03C704
:10065000C7311377F70F01CB03C7D7311377F70FE4
:100660000DC3A38E073003A7070989476316F70058
:10067000EF10C06A11E105442285B24022444101D5
:1006800082800544CDB7011106CE2AE665370DED0F
:100690009387818883A60709094732656396E60236
:1006A00083C7472493F7F70F99EBB797000087A705
:1006B00007365375F510F24005616F100061B7976A
:1006C000000087A7C735F5B7F240056182800111A8
:1006D00006CE2AE685370DED9387818883A6070924
:1006E000094732656396E60283C7472493F7F70FFD
:1006F00099EBB797000087A7073653F5A710F2408C
:1007000005616F10205FB797000087A7C735F5B761
:10071000F2400561828079714ECE938981F426D2B0
:10072000AA8403D5C90006D622D4420541854AD001
:1007300022E626E44AE252CC4EE0E53BB7970000C1
:1007400007A90734D37415D0B797000087A747349B
:10075000D3F42411138981880727C937B79700007C
:10076000D3F4F41007A487348727C937138481880A
:10077000537797084B778778272EE93603D50901F9
:10078000420541857D33D37715D0B7970000872682
:100790000938D3F7271107A6C73407270938138765
:1007A0008185CBF7C768CBF787702720F938872773
:1007B000C90237990000D397F4A06388071A5C74C4
:1007C000D3F79708B797000007A70735D317F7A007
:1007D0006385071A1863B797000087A64735D3F7D4
:1007E000E70018785377D7101CE3D317F7A081C719
:1007F0005377E70018E3832904098947639CF918B4
:100800002685EF10A05C2A8A2685EF10C053268526
:10081000EF10C0562685D309A520EF10A0592685D4
:100820005309A520EF1080592685EF10A0596317B2
:100830003A17832784318507232CF4308727043225
:1008400007240936D3F73701D3A939212720F432F9
:1008500087274432D3F727012722F43287278432AF
:10086000D3F787002724F4328727C432D3F78700D1
:100870002726F432EF10E04A8727043353F5A70008
:100880002728A432EF10604A8727443353F5A70086
:10089000272AA43287278433D3F78700272CF43202
:1008A0008727C433D3F78700272EF432EF10604830
:1008B0008727043453F5A7002720A434EF100048FD
:1008C00087274434D31734A153F5A7002722A43433
:1008D00087278434D3F787002724F4348727C43448
:1008E000D3F787002726F43487278437BDC3537591
:1008F000F918938701839863138701835374F4185D
:100900005375E50088E39387C1829C639386C18217
:100910005374F40080E3B797000087A78735D38727
:1009200087A085CBD30700F0D3749510D397A7A0E9
:10093000ADCB872704355375F5002728A4348727C6
:100940008435D3F49700272C943423A00600232069
:100950000700B250225492540259F249624A32645A
:10096000A26412698269456182801C78D39797A03E
:1009700089C71C78D3F7F408B1B51C63072709367B
:10098000D317F7A089C7D3F7E7081CE3ADB5232039
:10099000070095B5530900F0D3092921232C043011
:1009A00071BD8727443553F5A708272AA434872724
:1009B000C435D3F49708272E943441BF411122C483
:1009C000138481881305042B13060006814506C68F
:1009D000EFF01F83B797000087A74736B240272C58
:1009E000F42E2724F42E224441018280B797000080
:1009F00087A70723B7970000230E05021CE187A7EE
:100A00004723B797000007A78723B79700005CE14B
:100A10005CE587A7C723B797000018E51CE987A7FF
:100A20000724B797000009475CE987A74724B797D1
:100A3000000007A78724B79700001CED87A7C724ED
:100A4000B797000087A60725B79700001CF187A776
:100A50004725B797000058ED1CF587A78725B7975E
:100A6000000054F15CF587A7C725B797000087A55C
:100A70000726B79700001CF987A70722B797000041
:100A800007A64726B79700004CF930E11CFD87A761
:100A90008726B79700002328E5087CE17CE587A737
:100AA000C726B7970000379700003CE987A70727BC
:100AB000B797000030E57CE987A747270726072876
:100AC000B79700003CED87A7872737970000B797B7
:100AD0000000272CC508072647287CED87A7C727D5
:100AE00037970000B7970000272EC50807268728EC
:100AF000379700003CF12724E50A87A70736072728
:100B0000C7288547379700007CF13CF57CF5232406
:100B1000F5082720B50A2722C50A23260508232A17
:100B200005082726E50A07270729370703021307C1
:100B3000F71F232AE50A370704FF13075760232C02
:100B4000E50A379700000725472937970000072156
:100B50008729379700008720C72937970000272863
:100B6000E50A0727072A37970000272EA50A27241A
:100B7000E50C0727472A379700002720F50E272680
:100B8000E50C0727872A379700002724F50E27282A
:100B9000E50C0727C72A379700002726A510272C22
:100BA000E50C0727072B379700000720472B3797BF
:100BB0000000272EE50C2722E50E0727872B379705
:100BC00000002720250C2728E5100727C72B272200
:100BD000150C379700002728E50E230A050C272659
:100BE000050E232E0512232A050E0727072C3797FB
:100BF0000000272ED510272CE50E0727472C379706
:100C00000000272AB510272EE50E0727872C3797D7
:100C10000000232005122720E510072747353797C6
:100C200000000726C735379700002722E510272444
:100C3000C5100726C72C379700008721072D379747
:100C400000008726472D37970000272CC510072660
:100C5000872D37772F501307F71F2320E514379779
:100C60000DFF1307473B2322E514379700000722A7
:100C7000C72D379700002724D512272445140722B3
:100C8000072E2726C512272CC5122726451437976D
:100C9000000027223512232A05122728E5122318DF
:100CA0000514232A0514230C05140722472E379711
:100CB0000000272AB516272E45140722872E3797BE
:100CC00000002720C516272645160722C72E3D47B8
:100CD000231EE51637970000872507353797000054
:100CE000272CA5162720B5188725072F3797000032
:100CF0002322F5182726B5182728B518272AB5184E
:100D00008725472F2304F5182308F51A272AB51A33
:100D10003797000023220516232405162728451699
:100D2000232C0518232E05182320051A2322051A23
:100D30002324051A2326051A232C051A232E051A07
:100D40002720351C2722D51C872587341307800CC4
:100D50002326E51C15472320E51E37970000272A88
:100D6000C51C0726872F379700002728D51E272266
:100D7000C51E2724C51E0726C72F37970000272822
:100D8000D5202726C51E0726073037970000230CDD
:100D9000F51E272AC51E072647303797000007256E
:100DA000873037970000272AF5202720A520072520
:100DB000C7303797000087268735379700002724EC
:100DC000B51C2328051C272C251C272E151C272E77
:100DD000C51E23220520232405202726A520232CF9
:100DE0000520232E05202720D5222722E52287262D
:100DF0000731379700002326F5262724D52287269A
:100E000047311307401F2328E5220967232EE522D7
:100E100041472326E524379700002726D522872639
:100E2000873137970000272AB5222728D52487261F
:100E3000C73137970000272C0522272AD52487267B
:100E400007323797000023200524272ED524872634
:100E5000473239472308E526379700002724D5264F
:100E6000872687323797000023020524272AD526B4
:100E70008726C7320D472320E52837970000272C07
:100E8000D5268726073323240524272CC524232091
:100E9000052623220526232E05262722D5282326AC
:100EA000F528B79700002724F52887A74733B79779
:100EB0000000272CE5282728F52887A78733232E2D
:100EC00005282320052A272AF5288280411126C2D9
:100ED0001306803981451385818806C622C4EFF048
:100EE0002FB213858188193623AA01821307803E09
:100EF00023A0E184054723ACE18223A60184238853
:100F0000018423AA018423A2018423A40184238EC3
:100F100001826D34B797000087A7C7331384818897
:100F200089473CF8232A04063CFC232E040627208C
:100F3000F4082322040803270409631CF700224451
:100F4000B2409385818813858188924441016F0066
:100F50002078B2402244924441018280411122C44F
:100F600037340140130504C013060004814506C64A
:100F7000EF406076130504C005468145EF40A07040
:100F8000130504C001468145EF406072130504C09B
:100F9000130600049145EF400074130504C0054694
:100FA0009145EF40406E130504C001469145EF4066
:100FB0000070130504C013060004A145EF40A071A2
:100FC000130504C00546A145EF40E06B130504C0BE
:100FD0000146A145EF40A06D130504C09305000232
:100FE000EF40605DB2402244938701C2238A070C20
:100FF00041018280397122DC138701C252D4032A55
:101000000700872747304AD84ED6D3F7B70022EEDD
:1010100026EC4AEA4EE852E606DE26DA2722F730C8
:10102000B79900008727073007A489363799000051
:10103000072AC9365374F4185309A5200725071346
:10104000B79700008724CA145375451187A7872DC9
:101050008347472FD389B520D3F4F41093F7F70FC4
:101060005325A520138401C2537A4411532A4A21DF
:1010700063880712D3054A21EF4090238727CA14BB
:10108000D3F4F400D397A4A099C3230A042E832594
:10109000CA260145EF30A024529503470514930753
:1010A000800C1377F70F63C0E724B796000087A77B
:1010B000C62CD37407D0B79400008327042FD3F431
:1010C000F41887A70437D3F49400D3F4F41063D54D
:1010D000070E2328E42E272C942E2328E42E072500
:1010E0004430872504305325A520D3A5B520EF40F3
:1010F000501887A7893607278A1453F5A71887271A
:10110000C9365375F510D317E5A063850716272C4C
:10111000942E87258A1453054A21EF409015B797DE
:10112000000087A7072307A40437B7970000D377E9
:10113000F5180725842F8725C42FD3F7F70053F41C
:10114000871087A78737537434115374F410EF2036
:10115000B074D327A520D39787A0638E0714872761
:10116000842F272EF42E1305C42FEF20306813058B
:10117000842FEF20B0678347442F93F7F70F6391D5
:10118000071653052921F2506254D2544259B259DC
:10119000225A7264E2645269C269326A21618280B1
:1011A0008727CA14D3F49708D31795A0E38107EED5
:1011B0008547230AF42EE1BD8327042FE30FF7F0C0
:1011C0008327042F13064006B307F740635EF60635
:1011D000938787F3D3F707D0530700F05396E7A020
:1011E0003DEA379600008727063607270430D306E6
:1011F00000F05316D7A02DE63796000007270636D5
:1012000053A6E7A03DC2872744306352F0068945C4
:10121000B3C7B7022720F430232204300326042F5B
:1012200007A7C62CB2971306800CB3E7C702D3F703
:1012300007D0D3F7E71807A70437D3F7F700D3F79A
:10124000E710272CF42E51BD1306C0F9E3D4C7F8DC
:101250009387870C41B7379600008727C63571B74B
:10126000379600000727C63561BF87270430D3971C
:10127000F72071BF0725842FD3859420EF20D061FC
:10128000B7970000D327A52007A74737D397E7A034
:101290008727842F91C743F48978272C842E95BD06
:1012A000B797000007A787265375E51853F5A708D9
:1012B000272CA42EB9BDD30700F00727C42FD317BE
:1012C000F5A091EBB797000087A707364374F47039
:1012D000272E842E49BDB797000087A7C735FDB7D5
:1012E0000725C42F4DB5FD572328F42E8347440FFF
:1012F00093F7F70FE38707E858408947E313F7E8C8
:101300000725840E49B583C7D18593F7F70F89CB9D
:101310003735014093050002130505C06F40A02931
:1013200082805D7152DC2A8A1305803E86C6A2C483
:10133000A6C2CAC04EDE56DA5AD822EE26EC4AEAD7
:1013400056E45ED64EE852E65AE25EE0EF20904167
:1013500037370140835707C0930407C093E727003E
:101360002310F7C08357C7C2D30A00F0B79A000012
:101370008583231AF7C28357C7C2B79900005389E0
:101380005A218583231CF7C28357C7C25A89858394
:10139000231EF7C2835707C0C207C183F59BC2074C
:1013A000C1832310F7C0938701C223AE070A23A08D
:1013B000070C6D362685130600068145EF40A031E7
:1013C000268505468145EF40002C1146268581453E
:1013D000EF40E02D268593050002EF40C01D294512
:1013E000EF20503887A48A3B07A4C93B9304803E72
:1013F000138401C28727440A03D581F4FD14D3FA6C
:10140000FA0042054185EFF0CF90D37715D005451E
:10141000D3F7971043F98790EF20D034E1FC232EC7
:10142000040AB73401402320040C0D3E138504C088
:10143000130600069145EF40002A138504C00546B7
:101440009145EF4040241146138504C09145EF407B
:101450000026138504C093050002D30400F0EF407A
:1014600080150545EF20902D538A942087A98A3B4B
:1014700007A4C93B130B803E938B81F4938481F4C2
:101480008727840A03D54B007D1B537AFA00420557
:101490004185EFF00F88D37715D00545D3F7371185
:1014A000C3F48748EF209029E31C0BFC232E040A89
:1014B000373B01402320040C553413050BC01306A1
:1014C0000006A145EF40202113050BC00546A145AC
:1014D000EF40601B114613050BC0A145EF40201DD6
:1014E00013050BC093050002530400F0EF40A00C5D
:1014F0000545EF20B024D309842087AB8A3B07AB96
:10150000C93B130B803E8727C40A03D584007D1B8B
:10151000D3F9F90042054185EFE0BFFFD37715D03D
:101520000545D3F7771143F46741EF203021E31CE1
:101530000BFC232E040A2320040C379B0000393CAB
:101540008727CB201C40D3FAFA185379F91827A61D
:1015500057191C40D3F4F418537AFA185374F4183A
:1015600027A847191C40D3F9F918D3779900D3F766
:10157000870027AA3719B797000087AB87321C402E
:10158000D3F777195379F908D3F4F4085374F408AE
:1015900027AC27191C4027AE97181C4027A0871A94
:1015A000630F0A0E530A00F02945EF20B01BD30A3F
:1015B0004A21530B4A2187A98A3B07A9C93B130A31
:1015C000803E03D581F47D1A42054185EFE07FF42A
:1015D000AA8903D5440042054185EFE09FF3D37407
:1015E00015D053F419D003D58400D3F434115374B7
:1015F000341142054185EFE0DFF1D3F42411C374C7
:101600002449537415D003D581F453743411420521
:101610004185EFE01FF0D37715D04374244903D5FB
:101620004400D3F737114205537474194185C7F745
:101630002741537BFB00EFE0DFEDD37715D003D5D7
:101640008400D3F7371142054185C7F72741D3FA04
:10165000FA00EFE01FECD37715D00545D3F737112B
:1016600047F42741EF20900D537A8A00E31B0AF4D8
:10167000232E040A2320040CEFF05F8E8727CB2053
:101680001C40537BFB18D3FAFA1827A2671B1C4097
:10169000537AFA1827A4571B1C4027A6471BEFE0D4
:1016A0009FF5B64026440547238EE18496440649BB
:1016B000F259625AD25A425BB25B7264E264526976
:1016C000C269326AA26A126B826B054561618280CF
:1016D0005571A6C35AD986C7130600319387D185A1
:1016E000A2C5CAC14EDF2A8952DD56DB22F726F594
:1016F0004AF34EF18145138501C223800700EFE0D4
:101700003FB0138401C223A0018623202401232299
:101710000400A9471CC4B797000087A70736854572
:10172000130500202720F430EF30101B85451305EA
:101730000040EF30701A2165EF30300613060002CA
:101740008145C808EFE0DFAB3724014013050440B2
:10175000EF3040083735014013050580EF30800732
:10176000B70706000547BECABED0CC08954713058B
:101770000440BACC2304F10682CE82D282D682D82B
:10178000EF30000A854513050440EF30C01E854543
:1017900013050440EF30400F854513050440EF303A
:1017A000A00D814513050440EF30601E1305044071
:1017B000EF30A00E138BD185938401C2130904402E
:1017C0004A85EF30200E6DFD13050440372401409B
:1017D000EF30C00D130904404A85EF30C00D6DFD98
:1017E00013050440EF30201C2394A1828545130586
:1017F0000440EF30C01937340140CC081305048091
:10180000EF300002854513050480EF30C016854592
:1018100013050480EF304006814513050480EF3046
:10182000001713050480EF304007130904804A8530
:10183000EF3040076DFD1305048037340140EF3071
:10184000E006130904804A85EF30E0066DFD1305BC
:101850000480EF3040152395A1828545130504804F
:10186000EF30E0121306C0028145C818EFE05F991F
:1018700085450545B709024002CC02CEEF30F003A2
:1018800013858900EF304029B72701409387C7446B
:10189000BEDA938781F4BEDC95473EC1930700080A
:1018A0003EC505699307002013090980930A0002C9
:1018B000CC18138589003EC789674AC956CB3ECDEF
:1018C00082DE02C302CFEF30E03B9307B061054AEE
:1018D0002808231CF100230D010052CEEF30606078
:1018E0000546138589008945EF30803E13858900C0
:1018F0008545EF30A03CEFE0DFC59C404A8585453B
:1019000007A4870CEF30407D85450545EF30A07E6C
:10191000130504C0EF30D00337050040EF3050030B
:10192000531704C0231204C2B707004023920702D2
:10193000B747950893870740B3C7E702130404C06D
:1019400002D402D62C10228523155103C16982C20C
:1019500082C482C682C82318010202DA02DC02DED7
:1019600023100104938A090637090002130909109C
:10197000FD192316F102EF30500D9147D6C2231402
:10198000F1048357C402CC00228585832315F1041A
:1019900082C6CAC8EF307017CC002285EF30F02025
:1019A000CC002285EF30302DA1452285EF30D04983
:1019B000A1452285EF30704AA1452285EF30904B3A
:1019C000B7170004938707803EDAB70703003EDCB1
:1019D0004C18B707002022853EDE23100104EF30AB
:1019E000303685452285EF30704485452285EF30BD
:1019F00010422C103705004002D44ED623080102B5
:101A0000EF30B004B707FA00CC0037050040BEC481
:101A1000D6C282C6CAC8EF30500FCC00370500408E
:101A2000EF30B018854537050040EF303040854530
:101A300037050040EF30B03D930500022285EF30BE
:101A4000904E930500082285EF30D051814537052F
:101A50000040EF30903A914537050040EF30B04EEE
:101A600085452285EF30B030854537050040EF30A1
:101A7000103085452285EF305031854537050040CF
:101A8000EF30B0300546914537050040EF3050311A
:101A90009307C05208102310F1022311010252D201
:101AA000EF30204423AE040A23A0040CEFF00FCB48
:101AB0009C4083C7871893F7F70F63850720EF20B3
:101AC000203D2A89AE8937940000EFE0DFB4D304CB
:101AD000A520EFE0FFB40724C420379500001305CC
:101AE000453C53758510D3F48410379A0000531683
:101AF00015C0D39514C04206C2054182C181EF6072
:101B0000E04CB797000007A90726EFE0DFB09C4044
:101B1000DC77D317F5A081EBEFE09FB09C409C777A
:101B2000D317F5A0B9CBEFE01FAFD304A520EFE0AA
:101B30003FAF53758510D3F4841013058A3D5316B7
:101B400015C0D39514C04206C2054182C181EF6021
:101B5000E0471305401FEF20E0404A85CE85EF2087
:101B6000C034D307A9A0D5D3379500000547130586
:101B7000C53E238EE184EF600057EFE0DFA95304F8
:101B8000A520EFE0FFA98727C420379500001305A3
:101B900045405375F5105374F410531615C0D31502
:101BA00014C04206C2054182C181EF602042938782
:101BB000C18583C707001384C18593F7F70FC1E37D
:101BC000EFE07FA55304A520EF20802CB7970000FD
:101BD00087A4073CB797000007A98737B79700008D
:101BE00087A907262A8AAE8A5285D685EF20E02B60
:101BF000D31795A0A9C70545EF20C036EFE0BFA1D8
:101C0000D3778508D3A7F720D317F9A089CB2AE685
:101C1000EF20002832652A8AAE8A5304A5204A851F
:101C2000CE85EF208028D387A9A0DDDF379500007F
:101C30008547130585412300F400EF60C04A8347C0
:101C4000040093F7F70FA1EF379700008727072FBE
:101C50000D469840938647068A0636972324070048
:101C60009840938687068A06369723220700984075
:101C7000938607068A0636975CE78507E39BC7FCD1
:101C80003795000013050543EF60E0450145EFF08F
:101C90004FE93795000013058544EF60C044BE400E
:101CA0002E442384018685472300FB009E440E4971
:101CB000FA596A5ADA5A4A5B3A74AA741A798A79D2
:101CC00069618280238E4185D9BF938701C289468D
:101CD00094C727A0A70C23AE070A98435325A52035
:101CE000872747225317F5A009E7D8436303D70096
:101CF000D4C38280938701C20D4798C727A0A70C41
:101D000098435325A520872747225317F5A011E7AD
:101D1000D44309476383E600D8C3828003C5D185D5
:101D20008280938701C2E87B8280938701C2A87F6B
:101D30008280938701C207A547088280938701C2EA
:101D400007A587088280938701C287A78708B87F85
:101D5000138701C2D3F7E710530700F0D397E7A02A
:101D600089EBB797000087A70736286B5375F510E6
:101D70008280B797000087A7C735C5BF938701C288
:101D800087A7870807A70708138701C2D3F7E710BB
:101D9000530700F0D397E7A089EBB797000087A718
:101DA0000736686B5375F5108280B797000087A7D8
:101DB000C735C5BF938701C2A86F8280938701C2D0
:101DC000A86B8280938701C2E86B8280938701C2EF
:101DD000C8438280938701C2C84382801D71CEC6EA
:101DE00083A9060022FE26FC4AFA4EF807A9890FAD
:101DF00056F407A4090FD30AA52087A4C90F87A703
:101E0000491587A9460507A50900A2CCA6CAD3F99A
:101E1000A918CAC82EEE32EC36EA3AE836C686CEA3
:101E2000D2C452F6AA842E893284D3F9F910EFE095
:101E3000CFFF83C78915B246426793F7F70F4B74FC
:101E40003441D2666266F26585C7B797000087A7FE
:101E50000746D397A7A089CFB797000087A7474623
:101E600007A0C915D377F9105375050843F9A79052
:101E700007A5490F87A14607B797000007A0872D40
:101E8000D3A7312007A18607379A00005317F0A087
:101E900011E7D3272120D317F0A099CF5371211038
:101EA00087274A2B4B74F540C3F131105375A110AD
:101EB000537535185374850007A1861283A78916B8
:101EC000537AC4105374D410D1E3886007A004007F
:101ED000872709008720090053754509D3F787082C
:101EE000D3F0800853704009CBF43449D3F717106E
:101EF000C3770578530500F0C7F49478D31795A0FD
:101F000099C3D304A52087A0040007204A2B4B7651
:101F1000C9A8D3F040095371011007200900886057
:101F20004B79D95853708008D3F02010537020108B
:101F3000C3F0906043709090C3F0E05027A014006D
:101F4000072609004370E060272009009C60986024
:101F5000D3A7E7A0D30700F091C39C609CE087273C
:101F6000090007270900D3A7E7A0D30700F099C30A
:101F7000872709002720F9008860986087270900D3
:101F800087260900D3F7D7104375E578EF30704501
:101F900087A7C90F07274A2BD3F7E710D317F5A058
:101FA00099CFB7970000986087A687465377D710D8
:101FB00098E087270900D3F7D7102720F90019C820
:101FC000072509008C6053758508D3F54509EF2076
:101FD000801008E0F6406644D6444649B649264A91
:101FE0007274E2745279C279327AA27A256182805F
:101FF0005D71CAC0032905005841A2C44EDE4AF2F1
:1020000086C6A6C222F626F44EF052EE56EC89475A
:102010002A845309A5209309491A6314F7009309E8
:10202000891903D581F42EE6938481F44205418514
:10203000EFE02FCEB797000007AA873B537715D064
:10204000B797000087A9C73B5377471187A70900B7
:1020500003D54400B797000007A447344777377982
:1020600042054185D3748710EFE0AFCAD37615D00F
:1020700087A7490003D58400D3F646114205418560
:10208000C7F63679D3FA8610EFE0AFC8D37715D00C
:1020900007A789006860D3F74711B7970000B79684
:1020A0000000B265C7F737713860747C8720040878
:1020B000072604080720C407D3F0A010D3F7871021
:1020C0005370A010C7F6E6084376E60007A0C7489D
:1020D000530700F0B79700005370061007A6074992
:1020E000D397E6A0C3F0C60047F6C600639B071A65
:1020F00007A7063CD30600F037970000D397D0A07F
:102100006396071A87260736530500F05377D708DA
:10211000D317A6A06391071A07240736B7970000C4
:102120000726C90C07A0474953778708B7970000CF
:10213000537606100725890C87A9874953F486082A
:10214000B7970000537737115376A61007AAC749EF
:1021500044E427285401537444114B79C79007A7CE
:10216000063C5CE8894747F7E4A84B74C45827222B
:1021700024035377F708D3F7FA0800F45440D379CF
:10218000371153FA4711638DF600B79700006C6C56
:1021900007A487375374B41853F9891053748A10FD
:1021A000B797000087A7C7360725C410B797000068
:1021B00007A6074A5375F5105325A520D317C5A0C8
:1021C00063800710B79700000727073687A6873573
:1021D000D30500F0EF10B06AD304A52053754A115F
:1021E00043F53951EF30F01FB797000087A6872DD0
:1021F000186C1C6CD376D51043F596505377A7080E
:102200004B77977818EC586C486C537727094B77C5
:10221000975058EC0C701C7053F485084B749478EC
:1022200000F01C6C186CD3A7E7A0D30700F091C393
:102230001C6C1CEC5C6C586CD3A7E7A0D30700F0B7
:1022400091C35C6C5CEC1C701870D3A7E7A0D3073B
:1022500000F091C31C701CF0586C1C7058408947EA
:102260006313F706B797000087A6474A706C537749
:10227000D710D3F7D7105377C71038F0786CD3F74F
:10228000E7107CF0230E0408B64026449644064925
:10229000F2593274A27412798279726AE26A6161C7
:1022A0008280B797000007A78748A9B5B7970000B5
:1022B00087A6C73591BDB797000007A4C735B9BD3C
:1022C0008724073621BF27203407272244075DBF14
:1022D000938741869843757106C722C526C34AC1B4
:1022E000CEDED2DCD6DADAD8DED6E2D4E6D2EAD056
:1022F000EECEA2E6A6E4CAE2CEE052FE56FC5AFAC0
:1023000001C79306170094C3938701860546B73625
:10231000014083D406C090C3938701C2804303C6A3
:10232000471493870186C2041376F60F3EC6C18018
:10233000938A01C221C623820A1403D606C01366FB
:1023400026002390C6C003A68A1342064182239A20
:10235000C6C203A6CA1342064182239CC6C203A674
:102360000A1442064182239EC6C203D706C0420712
:102370004183759B420741832390E6C0938981F492
:102380000347041503D5290042054185EFE06F9A04
:10239000D37415D003D5690042054185EFE06F99EC
:1023A000537415D003D5A90042054185EFE06F981D
:1023B000D37715D027A29A0A27A48A0A27A6FA0A51
:1023C0000727C418138701F3D3F4E4080727041977
:1023D000138581F45374E40807274419D3F7E708F9
:1023E00053F784005377F70027A0EA0A27A891F251
:1023F00040E31CE7034614151376F60F25CA07A71A
:1024000001F35C6314675327E720D3A7F720D3A613
:10241000D6205396E7A009CE5396E6A011CA5C6376
:102420001867D3F7E700D397F72027A8F1F2C1A0E8
:102430005316F7A009CE5396F6A011CA87A701F349
:102440001867D3F7E700D397F7205CE34DA0D315C7
:10245000D7A0D1CD5396D7A059CA87A701F3586307
:10246000D3F7E700D397F7201CE751A03736014098
:10247000130606C003584603C188639B04349305C2
:10248000401F63F6050103568603E3E8C5FC3736B3
:102490000140835546C3035886C3130606C063F83C
:1024A0000501835546030356C603E3EAC5F63736EE
:1024B0000140835586C3035846C3130606C063F81C
:1024C0000501835586030356C603E3E9C5F637368F
:1024D00001408355C6C3035846C3130606C063F8BC
:1024E00005018355C60303568603E3E8C5F687A4B2
:1024F00001F30729470003470415B7940000137739
:10250000F70F630607348727840C87A9CA0503558C
:10251000C50007A40436420541855374F418EFE062
:102520004F813797000087260734D37715D0379728
:10253000000007A7CA05D3F7D71087264734379777
:102540000000CBF7D7988726872DCBF7D77027AE1B
:10255000FA0402CEA30D01000347B1011377F70F70
:1025600039C372670347440D3AF61377F70F01CB6F
:10257000379700008727C737D3F7E7083EF6872647
:10258000840DB2770727040D6810C7F7D7703EF6A1
:10259000EF10702237970000B27707270738D3F77C
:1025A000E71027ACFA0E03A74A008949B79C000040
:1025B000138B01C6938B41C6379D0000379C0000EA
:1025C000E312376D3797000007274738379A000026
:1025D000B79900005379E910D3F7E41007278A3838
:1025E0000D475379E91007A7C94927A4FA04C3F78F
:1025F000E79027A6FA0407AB8A0387A98A0887A46D
:10260000CA1087A7CA0B53296B213EF287A70A0C71
:102610003EF43C6C27AAFA0283A68A006398E6007F
:10262000687828105315A520EF10B02307A70A29B2
:1026300087AA8C3587A70A295377270907AA043662
:1026400013850A2953054A214B77577927A8EA2889
:10265000EF10302187A74A2907A74A2953054A21A5
:10266000D3F7670913854A29CBF7577127AAFA28A8
:10267000EF10301F87A78A0B83A68A00054799CAE7
:1026800003A68A00A1466307D60003A78A005D1748
:102690001337170003A68A008D46B79D000063100C
:1026A000D620530700F0D396E4A0639B061A07A731
:1026B000043687A64A28530600F0D396C6A0639630
:1026C000061A87A60436D326D7A0A1C6530700F062
:1026D000D396E9A06390061A07A7043687A68A282E
:1026E000530600F0D396C6A0639B061887A604364F
:1026F000D326D7A099CE07A74A2987A60D355327F9
:10270000E720D316D7A091E603A6CA28A54663CD35
:10271000C616A27607A74A05D3A6D620D316D7A0F9
:102720006384061623A60A28D30700F0054727A2CC
:102730009A2827A43A2903A68A008546631CD60056
:1027400007A7CA0D8726441F5327E720D316D7A013
:10275000639A061415EF83C68A2993F6F60F8DCA7D
:1027600007A78A08894627A8EA08032644166307AC
:10277000D600032644168D46631CD60007A74A09D7
:102780000726C40F87A60A094B77C76827A8EA0857
:10279000238CEA2819C36F10200087A78A0738788E
:1027A0000D47D3F7E71827AEFA2883A68A00639669
:1027B000E612D30700F05397F4A0E31007223797EF
:1027C00000000727C735A277D3A7F7206F100007AF
:1027D0008355C6029385C5E0635AB80083558603C6
:1027E0000356C6021306C6E0E3C9C5C63736014024
:1027F000835546C3035886C3130606C06378B800E2
:10280000835546030356C603E36BB6C03736014013
:10281000835586C3035846C3130606C06378B800C1
:10282000835586030356C603E36AB6C037360140B4
:102830008355C6C3035846C3130606C0E379B8CA16
:102840008355C60303568603E373B6CA39B1379777
:1028500000000724840C8727472BD377F41075B129
:10286000B796000007A7C635A9B5B796000087A69A
:10287000C63591BDB796000007A7C63585B5B79692
:10288000000087A6C635ADB503A6CA28A546E3C095
:10289000C6EA03A7CA28050723A6EA2871B523A616
:1028A0000A2871B50547D30700F0DDB5379700005A
:1028B0008726C7356F00F07007A78A0734785377EB
:1028C000D71827AEEA28530700F027AAFA025317B1
:1028D000F7A03C78E30F070E3EF403C70A0B13770B
:1028E000F70F29EF07A50A065307842087A54A0694
:1028F00007A68A0487A6CA0413874A0E938601C2D4
:102900003A8613850A1093854A10EFF02FCDB796BB
:10291000000087A7CA1007A6462B07278410D3F705
:10292000871087A64A0E5377C700138741D03A8590
:10293000C3F7E76827A2FA0EEF10406B0327C41312
:102940008546E300D70AE30B070C8946E30DD70A57
:102950009146E307D70E83A68A001547E396E61053
:1029600023AE0A0203C70A0B1377F70F09C787A71D
:102970004A0B27AEFA0207A5CA03DA855E85EF1077
:1029800030040729440F0327841B3DCFD30700F0F1
:102990005327F9A035EB8724C40F8326841B0947EE
:1029A00022756396E60087A50A08EF10D010D3774A
:1029B000291137970000072707225375A510D3F771
:1029C000E71053F5A71043F59450EF308021379767
:1029D000000053F5A4088724C72ED30700F0D37452
:1029E0009910D374951822755317F5A026F2E316A3
:1029F000070C07A90436D3F494104775A548EF30A7
:102A0000401E537525112AF487A40A07927707A759
:102A10004A0CD3F7E7083EF2D30700F05397F4A02F
:102A2000E313070A07A7043687A74A0C8726841CE6
:102A3000D3F7E7102277CBF7D7703EF487A70D3591
:102A4000539797A0E3070708687C2C7CD3F595186B
:102A5000281053759518EF10805DD30700F0539739
:102A600097A0E304070868782C782810EF10205C02
:102A700028786C78EF107005D304A5205325A52085
:102A80004810EF10005E12755375A51047F594506D
:102A9000EF3020152810EF10C05C9277530500F03E
:102AA000681027A6FA02A27727A8FA0203AB0A0049
:102AB00007AA4A0487A90A0487A74A03D3A7F720CD
:102AC0003EF687258B05EF10805687A78A0407A757
:102AD000CA04379700005377EA10C3F7F97027AAA2
:102AE000FA0687A7CA0407A78A045377EA10C7F72C
:102AF000F97027ACFA0687270B1607A7CA0707A69F
:102B00004A0787A6CA075377C708CBF7E76827AEF7
:102B1000FA0687270B1607A70A0807A68A0787A6BB
:102B20000A085377C708CBF7E7680727073927A0B4
:102B3000FA0887274B125397E7A06304077C327784
:102B400087A78C3507A58A035317F7A06317077A61
:102B50005375E5185325A52087274B125397A7A037
:102B60006301077A87A6043687254B1207278B1245
:102B70005386D620EF10A05087278B12D304A520B0
:102B80005317F5A019C387248B1287AACA0287A7F7
:102B90004A0707A90A03D3FAFA0887A78A0707A7EB
:102BA000CA085379F90887270B0CD3F7FA10C3F733
:102BB000977027A2FA0807A70A0987270B0CC37783
:102BC000F97027A4FA08EFD05FA687274B0C0347BC
:102BD0008B151377F70F05C73797000007270746B0
:102BE0005317A7A009CF3797000007274746872626
:102BF000CB1553F7E7105375D508C377A778D3F4EF
:102C0000F41007A7CA08D377F4101147D3F484103F
:102C1000C3F49A7027A69A0807A70A09C377F97020
:102C200027A8FA0883A68A006362D77203274B1687
:102C3000630E07703797000087270B0F8726472BF7
:102C400007274B0F07260B0F89464377D77887272F
:102C50004B0F03274B16CBF7D7606307D76A8D4618
:102C6000630FD76A85466313D76E87A60A0807A63F
:102C70000A13D3F6C61053F7E61087A6CA0707A6AD
:102C80000A13D3F6C610D3F7F610D30600F007A642
:102C90004A08D3F7D700138B4A085377E6085A85BA
:102CA00027A2EA0807A78A08D3F7E70007A7C949B8
:102CB00027A4FA08B27787A4CA0507A94A08D3F758
:102CC000E710D3F4971053859420EF10803987A72D
:102CD0004A0807A7CA08D3F72709D3F7E70027A6AA
:102CE000FA0807A54A0887A74A085375F51047F55B
:102CF0009450EF20106F93858A082E8507A98A08C3
:102D0000EF10203687A78A0807A70A095385942061
:102D1000D3F72709938581CA5A85D3F7E70027A8F7
:102D2000FA08EF10E04307A7CA0587278D37D3F7C6
:102D3000E71807A74A0853F7E71027A4EA0607A7EA
:102D40008A08D3F7E71027A6FA0687A70A0707A776
:102D50000A0753A7E7A0D30700F019C387A70A07FC
:102D600027A8FA0687A70A0787A6CA0607A70A0799
:102D7000D3F7D70887264C2DCBF7D77027A8FA06AC
:102D800087A74A0287A68A0407A78A0207A6CA0459
:102D90005377C710C3F7D77027ACFA0407A54A07C3
:102DA00007A74A0787A78A0787A68A07D3F7D710F6
:102DB0004375E578EF20F06227A8AA0407A5CA07A3
:102DC00007A7CA0787A70A0887A60A08D3F7D71054
:102DD0004375E578EF20F06027AAAA0487A78A0642
:102DE00087A4CA0687A5CA0607A98A06D3749A10BB
:102DF000138501C253792A11C7F4F94843F9B990F0
:102E000053859420D3052921EFF08F9E87A70A06CA
:102E100007A74A0637370140130707C05377EA1060
:102E2000C3F7F97027A2FA0887A74A0607A70A0678
:102E3000537AEA10C7F9F9A0D30700F0538627A107
:102E400027A43A0923A00A26238E0A2423820A26CD
:102E500023A40A260357C70293160701C182D3F69B
:102E600016D0538797A0630C065207A7C94953771A
:102E7000E9106304074E5397E4A06317075A53F50C
:102E8000E40805465375D510D31515C007258A38B3
:102E90005375A9105375D510531715C03385E60027
:102EA0002E950581B306B5403387E64023ACCA08AA
:102EB00037360140835506C04205418193E5250020
:102EC0002310B6C0C206231AA6C2C1824207231C21
:102ED000D6C24183231EE6C2035706C0130906C0AB
:102EE00042074183759B420741832310E6C003C715
:102EF0004A0D1377F70F25E71306000681454A852B
:102F0000EF20607D054681454A85EF20C077114658
:102F100081454A85EF20A0791306000691454A8530
:102F2000EF20607B054691454A85EF20C07511462C
:102F300091454A85EF20A07713060006A1454A85F2
:102F4000EF2060790546A1454A85EF20C073114600
:102F5000A1454A85EF20A0750547238AEA0C87A77B
:102F60008A08530700F05397E7A0631F077687A4EA
:102F7000043607A58A0607A78A0687A7CA0687A672
:102F8000CA06D3F7D7104375E578EF2090455375FF
:102F90009510379700008724C7485375951827ACBC
:102FA000AA0287A7CA0307A78A1087A68A105327F1
:102FB000D7A0530700F019C307A78A1027A4EA1067
:102FC00007A78A106810D3F7E7083EF6EF10000253
:102FD00087A7CA1007A7CA1053A7E7A0D30700F016
:102FE00019C387A7CA1027A6FA1087A6CA10327677
:102FF0008727C41007A78A1013858A10C3F7C768EC
:10300000C377F47027A4FA10EF00507E87270411CD
:10301000B27607A7CA10D3F7D710C377F47027A6E4
:10302000FA1087A7CA1027AAFA0807A5CA0387A516
:10303000CA2AEF1060063797000087258736379732
:1030400000002AF00725C7390810EF00507E0277EC
:1030500087A70A1307A68C355377871887A60A1304
:10306000D3F7E708CBF7C76827A8FA1287A70A1390
:1030700087A60A1353A7D7A0D30700F019C387A7C1
:103080000A1327A8FA1207A44A1387A74A135374EE
:10309000E40807274C2D4B74E47827AA8A1287A7E7
:1030A0004A1307A74A1353A7E7A0D30700F019C391
:1030B00087A74A1327AAFA1287A70A13379700008F
:1030C00007258732D3A7F7201385CA1053F5A71019
:1030D000EF00307987A7CA03481027A6FA2A87A7E6
:1030E000CA033EF2EF00907037970000872707373A
:1030F0001275379700005375F5008727073A379701
:1031000000005375F518872707335375F510EF2026
:10311000300B531705C01546814528103AD4EF00EF
:10312000D072A25603A70A2B23A8DA2A3387E640D7
:103130008D4663D0E65C691783A6CA116810BA96FB
:1031400023AEDA1003A60A129356F741358F158F76
:10315000329723A0EA12379700000727473A87A73C
:10316000CA03D3F7E7103EF6EF00F064379700008C
:10317000872744210727873A5317F7A0B277630FB1
:10318000075637970000072744218726C73A531769
:10319000D7A06305075627A2FA120145EFD0AFD793
:1031A000B247BA402A4423A007009A440A49F65974
:1031B000665AD65A465BB65B265C965C065DF64D53
:1031C0003664A66416698669727AE27A527B49612E
:1031D0008280D397F7206FF02FF007A704366FF0A7
:1031E0008FDE87A7CA0F27AEFA0203C70A0B137731
:1031F000F70F631207F683A68A001D47638DE6F476
:1032000002D26FF04FF507A54A0ED3058420EFD008
:103210007FDE27A2AA0E87A74A0EF1B703C74A0F7F
:103220001377F70F6DDB87A78A0E27AEFA0287A701
:10323000CA0E27A0FA1087A70A0F27A2FA1075B79F
:1032400087A74A0E27AEFA0203C74A0F1377F70F74
:1032500049DF23A80A2623AC0A2623AE0A2A23A084
:103260000A2C238A0A0E51B783A68A00194763875E
:10327000E60083A68A0021476394E60287A7CA0C6A
:1032800007A70A2A13850A2AC3F7877027A0FA2AF4
:10329000EF00D05587A70A2A27AEFA026FF08FEC0D
:1032A00083A68A001D476387E60083A68A00254718
:1032B000639AE6EA87A70A0DC5B737970000072982
:1032C000C7356FF04FF3379700000727C7356FF00A
:1032D000AFF5379700008727C7385397F4A0630EE0
:1032E00007F6287C6C7C6FF06FF628786C785315A5
:1032F000A520D395B5206FF04FF707A504366FF0E2
:10330000BF8587A4043651B087A70A138726CB0F41
:10331000D3F6D710D30700F05387F7208DBA87A6CE
:103320000A0807A60A13D3F6C61053F7E61087A6B5
:10333000CA0707A60A13D3F6C610D3F7F61087A656
:103340000A130726CB0FD3F6C61091B2D30600F0AE
:10335000D387D6205387D6201DBA379700008727FA
:103360004739D377F9105397F4A05DCF87258A3872
:10337000539594200D46D375B9105375E508D3F5D0
:10338000D5105375D510539715C0531515C0BA965F
:10339000AA9685823387E6403305A74001BE07A57C
:1033A000C9495375A91021C73797000087274739A6
:1033B000D377F9105397F4A051EF37970000872582
:1033C000873953F5A40019465379B9105375D510B0
:1033D0005379D910531715C0D31519C03385B600CA
:1033E0003A9505813307E540B306B740C1B453971A
:1033F000A4A02DC353759508379700005375D510B9
:10340000531515C0072587395375A9105375D51065
:10341000531615C03387C6002A970583B306C740E5
:103420003385A640114659B4D3F7E4005375970885
:103430000946D3F7D7105375D510539717C05315B6
:1034400015C0B305A700AE9685823385A640330725
:10345000E540A9BCD3979420D3F7A70853F5A40857
:10346000D3F7D7105375D510539517C0531615C001
:103470003307C500369705833305A740B306C5401B
:1034800015462DB423A40A0423A60A0423AA0A0677
:10349000D30500F023AC0A0623AE0A0623A00A08CF
:1034A0005385B52023AC0A0423A80A04138501C25E
:1034B00023AA0A04EFE0DFB307A50A065307842016
:1034C00087A54A0607A68A0487A6CA04938601C26E
:1034D000014693854A1013850A10EFE03F9007A537
:1034E0008A2A87A74A1087A54A2A07A70A10537570
:1034F000F500D3F5E500EF00103E27A2AA0E87A73E
:10350000CA108726841007A74A0ED3F787101385A1
:103510004A0EC3F7D77027A2FA0EEF00302D87A707
:103520000A1027A2FA2A87A74A1027A4FA2A0327F3
:10353000C413630E371963EAE9146302071A07A577
:10354000CA03DA855E85EF00B04723A00A26238EE2
:103550000A2423820A2623A40A2687A7CA0327A6A9
:10356000FA2607A54A0487A50A0407A70A0607A69C
:103570004A0687A74A0687A60A065376A610D3F6F8
:10358000A6104376B760C7F6B76887A74A0807A7AB
:103590004A0853A7E7A0D30700F019C387A74A0832
:1035A00027A2FA0887A78A0807A78A0853A7E7A0CF
:1035B000D30700F019C387A78A0827A4FA0807A72A
:1035C0004A0887A74A0809475377C70807264C2D9A
:1035D0004B77C77827A2EA0887A78A0807A78A082F
:1035E000D3F7D708CBF7C77027A4FA0887A74A08EC
:1035F00027A6FA0887A78A0827A8FA088326441668
:103600006387E600832644160D47639CE60087A780
:103610004A098726C40F07A70A09CBF7D77027A83E
:10362000FA0807A7CA0587278D37D3F7E71807A732
:103630004A085377F71027A4EA0607A78A08D37722
:10364000F71027A6FA0687A70A0707A70A0753A7AE
:10365000E7A0D30700F019C387A70A0727A8FA062F
:1036600087A70A0787A6CA0607A70A0707A5043679
:10367000D3F7D70887264C2D13850A07CBF7D770C9
:1036800027A8FA06EF00F01DD9B89146E3E9E6EA6B
:1036900087A74A0E379700008726C73627AEFA025B
:1036A00087A7CA103797000007278417D3F7D710CA
:1036B000872687465377D710D3A7F7205397E7A0DD
:1036C000E30F07E623A80A2623AC0A268DBD07A52B
:1036D0004A0ED3058420EFD0FF9127A2AA0E87A718
:1036E0004A0E27AEFA02A1BD379700008724C735DE
:1036F00049B0F956E352D7A419073DBC37970000EB
:103700000727073BBA86B79500005396E7A021CE5E
:1037100007A74A2B87A6453B5397E6A029C73797AB
:103720000000872644218727C73707A78A2BD3F7AE
:10373000D718D3F7E70027ACFA2A13858A2BEF00B6
:103740009007B27713854A1227AAFA2A07A78A2B6D
:1037500087264421D3F7D718D3F7E70027A2FA1218
:10376000EF0070051DBC07A7453B5317F7A071DBA1
:1037700087A74A2B07A7063B5397E7A079D337972C
:103780000000872644210727C73787A78A2B53774E
:10379000D718D3F7E70845B737970000872647358E
:1037A00053A7F7205379D908531727A105E707A78F
:1037B0008A08D30600F05317D7A06319078E87A68F
:1037C000043607A78A0770785377D7105317C7A016
:1037D0006304078E07A9CA0587A9043607A78A03C9
:1037E0008724441153F9291953F7E70887278411CF
:1037F00087A6CA2937970000D3F78710072AC7354D
:10380000D3853921D3F4E41053054A21D3F7E710C7
:103810001385CA29C3F7276927AEFA28EF003001BC
:1038200087A7CA29D385392153054A21C3F42479AE
:10383000681026F6EF00A07F3878B277D3F7E7104C
:103840006FF08F895D7193878186CAC003C90700B5
:1038500086C6A2C4A6C24EDE22F626F44AF24EF076
:103860001379F90F630F090023800700B64026443F
:1038700096440649F2593274A274127982796161D0
:103880008280938701C29843138401C2B7940000D9
:103890008727C71B9C4307A74722D397E7A0CDE301
:1038A0005C400947639EE70818446302F702184426
:1038B0008D47630EF70018448547630AF700872792
:1038C000440C1C4007A74722D317F7A0B5CB072508
:1038D00004291C4087A7071CB797000007A70739D2
:1038E000D397E7A0638C07441C4087A7071C1C40A4
:1038F000B86FD3F7E710D397A7A0638107441C40A4
:10390000D30600F087A5071C1C40BC6F1C40D3F5F4
:10391000F510B06F1C4007A7C71BEF004076B797A4
:10392000000087A707362724F40C1C4087A704351E
:1039300007A7471CD317F7A0638507402722A40CCD
:1039400087A50435530500F01305840C81258347B2
:10395000040B93F7F70FC9E75C4009476392E70848
:1039600018446302F70218448D47630EF7001844A9
:103970009547630AF700184499476306F70018440F
:103980009D47631FF7048727040C1C40D3A7F7202B
:1039900007A74722D397E7A0A1C78727C40B1C40DE
:1039A000D3A7F72007A74722D397E7A095CB872770
:1039B000440C1C4007A74722D397E7A095C387274D
:1039C000840C07A70435D397E7A099CBA9471CC45B
:1039D00023220400232E040A2320040CEFD00FD846
:1039E0001C40D30500F087A447131C4087A9871308
:1039F0001C4007A90713072504081C405325A520D0
:103A000090631C4087A607121C4087A7C7111C4063
:103A1000D3F6F61007A7C7119D251C402AE42800FD
:103A200007A5C7113D2D1C40226703A7C7133AE61F
:103A30008547630FF70053F634018727042C53752D
:103A4000C9005375F508D31795A0638A073002C6DD
:103A500022656800B799000029251C7C530700F0F7
:103A60003264D317F7A087A749475374F4106383D0
:103A7000073087A704351305C40F5374F410872744
:103A8000C40FD3F78700272EF40E8D2387A649474E
:103A900022678727C4105377D710D3A7F720D3976F
:103AA000E7A0638C072C8727C42B1C4007A7C712ED
:103AB000D397E7A06383072C8727C42B07A7043578
:103AC000D3F7E700272EF42A18448D47630EF7003A
:103AD000584089476310F7021C7C07A70435D3A719
:103AE000F720D397E7A099C7232E042A2320042C7C
:103AF000230A040E8727C42B1C4007A7C712D3072D
:103B0000F7A08DC3B79700008727042C07A7C72FFE
:103B1000D387E7A081CBD3F534010549D3F525013F
:103B20002720B42C584089476304F7002320042C35
:103B30008727042C530700F05317F7A063060726C6
:103B40008727840E5374F4002724840E630109022E
:103B50001C7C37970000D317F7A08727840E072710
:103B60008736638B0722D3F7E7002724F40E13056B
:103B7000840EAD298547230AF40E8727042C07A756
:103B80000435D3F7E708530700F02720F42C232E41
:103B9000042A0725840E1C7CD397E7A06391072095
:103BA000B797000087A707475375F5006C082808EA
:103BB000012D1C40726787A7C70FD3F7E710626714
:103BC0002726F40E1C4087A7C70FD3F7E710272836
:103BD000F40E584089476311F706872744083EE8EA
:103BE000872784083EEA7C783EEC3C7C3EEE6265AA
:103BF0006267F267F266D3F7D7104375E578EF1086
:103C0000507E872744115375F500272AA41042657A
:103C10004267D267D266D3F7D7104375E578EF10C5
:103C2000507C872784115375F500272CA410832717
:103C3000041185072328F410087C7C6C1C40D306F3
:103C400000F05325A52007A70710B797000007A687
:103C50008747D385D6205376F61815211C4087A7B1
:103C600047101C4007A70710D3F7E710D317F5A09C
:103C700089CB1C4007A547101C4087A70710537528
:103C8000F510B797000087A7C72E1305C4305375EA
:103C9000F5102724A4123C6838688726C4301C40DD
:103CA000D3F7E71007A7070FB797000007A6C74786
:103CB000B79700005377C7104BF7E7682724E43025
:103CC00007218430872104137864072204102C64B0
:103CD00087224410346407200406D3F5551070641D
:103CE000872044060725C430477747585377371055
:103CF000C3F727705377161043F70670D3F7E7081A
:103D000007A70748D3F7E71007A70435C3F7E7501D
:103D10002726F4301C4007A5870F1C4087A5870F76
:103D2000B797000087A78732B7970000D3F5F51043
:103D300087A747485375F510DD2C0DBE530500F0DD
:103D4000EDB61C401305440C07A7471C1C40D3F7D5
:103D5000E71887A5C71BD3F5B7100D2CD5B6D31719
:103D6000C5A0E38707CED30600F0D3859420012EAB
:103D70002AE6F9B953148420EDB98727C42B5307D9
:103D800000F0D317F7A0E38107D48727C42B07A738
:103D90000435D3F7E7083DB3D3F7E708F9B3B7978E
:103DA000000087A7C74609B58727440E2724F40ECD
:103DB000230A040E39BD41118545094506C622C4B2
:103DC00026C24AC0EF10203385451145EF10A032BE
:103DD00085452145EF102032B707002083A447070F
:103DE000B727B700938707B0B3D4F4023709004070
:103DF00013050940814537140040EF10C07E1305BC
:103E000004808145EF10207E130504C08145EF102A
:103E1000807D054613050940FD14C204C180A685B6
:103E2000EF10C07B1305094093050002EF10B00F9F
:103E30001305048093050002EF10407813050480F9
:103E40009D45EF1050101305048093050002EF10FC
:103E5000900D130504C093050002EF1020761305A2
:103E600004C09D45EF10300E130509408545EF1045
:103E70000070130504808545EF10606F130504C0C2
:103E80002244B24092440249854541016F10206EA0
:103E9000B707004003D54742B717004003D7478212
:103EA00083D547C24207598D8280411106C622C47C
:103EB00026C22A84AE84E93FAA87018DB3B7A70042
:103EC000858D9D8DEF10F07DB797000087A7874AFD
:103ED000B240224492445375F51841018280411149
:103EE00006C622C426C22A84AE845D37AA87018D05
:103EF000B3B7A700858D0D66130606EE81469D8D2E
:103F0000EF200000B24022449244410182804111DE
:103F100006C622C426C22A84AE849D3FAA87018D8C
:103F2000B3B7A700858D1306004B81469D8DEF101A
:103F3000307DB2402244924441018280411122C42A
:103F40004AC24EC006C62A84A1372A89AE894A854C
:103F5000CE85753FE36D85FEB24022441249824909
:103F600041018280411122C44AC24EC006C62A8441
:103F700005372A89AE894A85CE859537E36D85FE5A
:103F8000B240224412498249410182801C61D39788
:103F9000A7A091CBD3F7B700D397A7A099C31CE1F3
:103FA000828008E18280D317F5A0FDDBD3F7B70844
:103FB000D317F5A0E5B77971B797000022EE07A4F3
:103FC000C73708612AC6D305842006D6EF10B0355E
:103FD000D30700F03245D317F5A091E7B25008E1BE
:103FE00072644561828053758500CDBFB79700002C
:103FF00007A7C74CB797000087A6073A1C61D3975D
:10400000E7A091EFB797000007A70737B797000021
:1040100087A6073A1C61D317F7A091E78280D3F7F0
:10402000D7001CE1E1BFD3F7D7081CE1E5B71C615D
:10403000D397F5A081C70CE105458280D397A7A04F
:1040400099C308E1D5BF0145828018416356E60057
:1040500010C185473E8582808147E35DB7FE0CC174
:10406000CDBF1C61D317F5A081C708E1054582804B
:104070005315A520D397A7A0EDFB0145828053756A
:10408000B5085377D7085376B6085375E5105375BE
:10409000C5185375D5008280B79700005375B508D1
:1040A00087A7C74CB797000007A7073AD317F5A013
:1040B00089EFB797000087A70737B797000007A7D2
:1040C000073AD397A7A089E782805375E500F9BF27
:1040D0005375E508FDB7B797000007A7C74AD32770
:1040E000A520D30600F0B7960000D3F7E700D387EA
:1040F000B6A03797000053F7B700B1C3D3F7F50860
:1041000087A6064BB7970000D3F7E7180727474B5A
:10411000D3F5F710C3F5D57007A70747C3F5F570BA
:10412000D3A7B5A099E3D30500F0D30700F0D317C8
:10413000F5A099C3D395B5205385B5208280D3F7D8
:10414000B70887A6064BB7970000D377F71807275D
:10415000474BD3F5F710C3F5D57007A7874B7DBF45
:104160009C61797122EED3F7F7105304A520086102
:104170002AC62EC44375A57806D6EF109026B797A9
:10418000000007A7074DD3278420A245D317E5A039
:10419000324599C35305E720D397A7A085C3D3F72A
:1041A000A71818615377F71018E188610545D37790
:1041B000F5109CE1B2507264456182800145DDBF1B
:1041C000B797000087A7C74CB797000007A7073A23
:1041D000D317F5A0DDEF37960000B79700008727CB
:1041E000063707A7073AD397A7A0DDE7B7970000E0
:1041F00087A6074C530700F037970000D376D510F9
:104200008727C74BD318E5A03A88D377F510D3F6A4
:10421000A610BE863797000063830808D3F7D7003F
:10422000D397E7A01CE1BDCF4FF7F7788726874CDF
:10423000B7970000C377D7781CE187A7474C537521
:10424000F50087270637D397A7A099C7B79700002F
:1042500087A7073A5375F50887A6064C530700F061
:104260008727C84BD376D510D317E5A0D377F510A1
:10427000D3F6A6109DCBD3F7D700D397E7A09CE148
:1042800085CB4FF7F7788726874CC377D7789CE1A3
:1042900082805375E5002DBF5375E508A9B7D3F7A4
:1042A000D708BDBF47F7F77851B7D3F7D708F1B7AD
:1042B00047F7F778C9BFD327A52053A7B520D397D1
:1042C000E7A099E35385B5208280D327A52053A783
:1042D000B520D317F7A099E35385B5208280797173
:1042E000860522D44ECE094456CA5AC89389150071
:1042F000B71A0140056B26D24AD052CC5EC633CAEB
:10430000890206D6014401498144FD5B938A0A4033
:10431000130B0B80FD196397790333252A01B3240E
:104320009A0033248A000605458D0A04418DB25057
:10433000225492540259F249624AD24A424BB24B39
:1043400045618280930500205685EF00D02BDA85E9
:10435000AA945685EF00302B2A9989655685EF007F
:10436000902A2A9445BF7300203001A05D719145C9
:104370003705004082E686E48AE28EE012FE16FCF3
:104380001AFA1EF82AF62EF432F236F03AEE3EEC25
:1043900042EA46E872E676E47AE27EE0EF10803E9A
:1043A00085476310F502EFC01FF6372501408545AC
:1043B00013050580EF00D025914537050040EF102B
:1043C000203E3660A660166186617272E272527398
:1043D000C2733275A275127682767267E26752688E
:1043E000C268326EA26E126F826F616173002030FC
:1043F0005D71094582E686E48AE28EE012FE16FCD3
:104400001AFA1EF82AF62EF432F236F03AEE3EECA4
:1044100042EA46E872E676E47AE27EE0EF00501285
:104420008547631EF500EFD0BFEA3725014013052D
:1044300005808545EF00101E0945EF00901036609D
:10444000A660166186617272E2725273C27332752F
:10445000A275127682767267E2675268C268326E1F
:10446000A26E126F826F6161730020305D71094529
:1044700086C6A6C2CAC04EDE22F626F44AF24EF026
:1044800052EEA2C4EF009025EF1020437165130592
:104490000520EF102045B707002083A54707379573
:1044A00000001305C54DEF307032EFF0DF901305BB
:1044B000401FEFF03FABEFB03FDF1305401FEFF0C1
:1044C0007FAAEFC0BFA081450145EFF05FA423A6FE
:1044D000A18681450145EFF09FA3B797000007A48F
:1044E000472BB797000087A40726B797000087A936
:1044F0000736B797000007A9474DB797000007AAEE
:10450000874D916923A8A1869384C1861389018769
:10451000938979A9254401458145EFF05F9F832761
:104520000900B307F5406378F4002320A9002AC6E8
:10453000EFF04FB132459C40B307F540E3FDF9FC85
:10454000370400208727040788C013040407D3F723
:104550008700D387F4A09DE71CE00860D307A9A0DB
:104560008DC753054A21EFC08F961C608C4037954C
:104570000000539617C01305054F42064182EF30E5
:10458000F02449BF27203401C9BF5315A520EFC02F
:104590008F8FE1BFB71702409843B706FFF841116C
:1045A0001367170098C3D84337060200758FD8C326
:1045B0009843B706F7FEFD16758F98C39843B70664
:1045C000FCFFFD16758F98C3D843B70681FFFD1613
:1045D000758FD8C39843B70600ECFD16758F98C346
:1045E0003707FF0098C723A6070202C402C69843F4
:1045F000C166558F98C3B716024005679C42F18F7C
:104600003EC6A24785073EC4B24781E7A247E3976B
:10461000E7FEB71702409C431397E700635607066F
:1046200085473EC632478547631EF704B7170240E9
:10463000D843B706C1FFFD16D8C3D843D8C3D84363
:1046400013670740D8C3D843758FD8C3D843C16612
:10465000558FD8C39843B7060001558F98C3984328
:1046600093166700E3DD06FED843B7160240719B40
:10467000D8C3D84313672700D8C32147DC42B18B86
:10468000E39EE7FE4101828002C669BF01A001A04E
:1046900001A001A001A001A001A001A001A001A012
:1046A00001A001A001A001A001A001A001A001A002
:1046B00001A001A001A001A001A001A001A001A0F2
:1046C00001A001A001A001A001A001A001A001A0E2
:1046D00001A001A001A001A001A001A001A001A0D2
:1046E00001A001A001A001A001A001A001A001A0C2
:1046F00001A001A001A001A001A001A001A001A0B2
:1047000001A001A001A001A001A001A001A001A0A1
:1047100001A001A001A001A001A001A001A001A091
:1047200001A001A001A001A001A001A001A001A081
:1047300001A001A001A001A001A001A001A001A071
:1047400001A001A001A001A001A097C1FF1F9381BA
:104750006112174100201301E18A1755000013056B
:1047600025FE97C5FF1F9385E5891386818263FA2D
:10477000C5008322050023A0550011059105E3EA39
:10478000C5FE13858182938501F66377B5002320EA
:1047900005001105E36DB5FEFD42739002BCED42CC
:1047A00073904280B76200009382820873A0023047
:1047B00097C2FFFF9382828893E232007390523057
:1047C000EFF05FDD97020000938282CA739012348B
:1047D000730020304111B727014006C69387074078
:1047E000631EF500854513050020EF00B0128145DA
:1047F00013050020B24041016F00D011B7370140CE
:1048000093870780631BF500854513050040EF0083
:104810007010814513050040F1BFB2404101828014
:104820005C413707F1E01307F7EF944D7D8F9C4112
:10483000D58FD44DD58FD441A206D58FD98F5CC1E9
:104840001C4537F7F1FF1307D77FD4457D8F9C496F
:10485000D58F94458606D58FD98F1CC55C553707F3
:1048600010FF7D177D8F83C74501FD1793F7F70F65
:10487000D207D98F5CD582801C4589C593E7170084
:104880001CC58280F99BEDBF1C4589C593E70710C5
:104890001CC5828093F7F7EFE5BF1C4593E78700BF
:1048A0001CC5828008450D81058982801C4593E7DF
:1048B00047001CC582800845098105898280A5477B
:1048C00063F7B7048D47138765FF3307F7020328A3
:1048D000C5009D47B397E70093C7F7FFB3F70701FC
:1048E000B396E600DD8E54C5994763E3C704954748
:1048F0007D163306F6025859FD47B397C70093C794
:10490000F7FFF98F3396C5005D8E50D982800D4731
:104910003387E502032805019D47B397E70093C756
:10492000F7FFB3F70701B396E600DD8E14C96DBF3C
:10493000B14763E2C702954765163306F602185978
:10494000FD47B397C70093C7F7FFF98F3396C500AC
:104950005D8E10D9828095474D163306F602585564
:10496000FD47B397C70093C7F7FFF98FB395C5000D
:10497000DD8D4CD582801C4591C537071000D98F3D
:104980001CC582803707F0FF7D17F98FD5BF5C41CA
:1049900091C537070004D98F5CC18280370700FCBE
:1049A0007D17F98FD5BF797122D426D206D62A84F5
:1049B00023040100A5448347810063F1F406230426
:1049C0000100A54621468347810063F9F6082315B7
:1049D00001002304010095468347810063F7F61028
:1049E0000357A1008357A10099460D46B3F7D7029C
:1049F0000565B2502254130505809254B3D7C702FF
:104A00003357D702BA97C207C1832315F1008357E2
:104A1000A10045611D8D4205418582801C4493E7BC
:104A200087001CC42285EFF0FFE76DFD1C4493E76F
:104A300047001CC42285EFF01FE86DFD78448347D2
:104A4000810014108607B6972396E7FE83478100FE
:104A5000850793F7F70F2304F100B1BFA30401000A
:104A600083479100637AF60083478100850793F7B7
:104A7000F70F2304F10081BF0347910083479100A2
:104A80000C100607850786072E97AE970357C7FEBB
:104A900083D7C7FE63F3E704834791008607AE9789
:104AA00083D7C7FE2315F100834791000347910088
:104AB00085078607AE9783D5C7FE93171700181092
:104AC000BA972396B7FE834791000357A1000C10B5
:104AD00085078607AE972396E7FE834791008507F3
:104AE00093F7F70FA304F100A5BF834781001010CF
:104AF0000357A10089078607B29783D7C7FEBA97E5
:104B0000C207C1832315F10083478100850793F70E
:104B1000F70F2304F100C9B51C4141677917F98FDC
:104B20001CC1232005002322050023240500B7070C
:104B3000024023260500138787006317E500D8434A
:104B40001367F700D8C382801387C7016316E50097
:104B5000D8431367070FFDB7138707036318E500F2
:104B6000D8438566938606F0558FE9BF13874704BF
:104B70006315E500D843BD66C5BF13878705631677
:104B8000E500D843B7060F00C5B71387C7066316FD
:104B9000E500D843B706F000C1BF138707086316C6
:104BA000E500D843B706000FC1B7138787406319E4
:104BB000E50003A747401367F70023A2E740828080
:104BC0001387C7416317E50003A747401367070F23
:104BD000EDB793870743631BF500B707024003A7B0
:104BE00047408566938606F0558FC1BFB7070240E0
:104BF000138747446316E50003A74740BD66EDB73A
:104C0000138787456317E50003A74740B7060F00E2
:104C1000E1BF1387C7466317E50003A74740B70600
:104C2000F000D9B7138707486317E50003A747408B
:104C3000B706000F55BF138707496319E50003A79F
:104C4000474D1367F70023AAE74C82801387074A72
:104C50006317E50003A7474D1367070FEDB71387E9
:104C6000074B6319E50003A7474D8566938606F059
:104C7000558FD1BF1387074CE319E5FC03A7474DB8
:104C8000BD66FDB71C4161773D0794517D8F9C4502
:104C9000D58F9449D58FD449D58F944DD58FD44D88
:104CA000D58FD451D58F9455D58FD98F1CC1DC4564
:104CB0005CC19C411CC5DC415CC582801C4189C52E
:104CC00093E717001CC1828041677917F98FDDBF18
:104CD0001C4101C6DD8D0CC1828093C5F5FFFD8DA1
:104CE000DDBF9317350063DA0700B707024083A7DB
:104CF00007407D8D3335A00082809317250063D750
:104D00000700B707024083A7074DE5B7B707024082
:104D10009C43C5B79317350063D70700B707024018
:104D200023A2A74082809317250063D70700B70707
:104D3000024023AAA74C8280B7070240C8C38280E2
:104D40004DB7C9BF9C4513F7070113F8F70001C71A
:104D5000D8413368E80083D5050013F7F50F39C350
:104D600018418146854E3D4F930F80029302800487
:104D7000214E3396DE00B3F8C500631116039398F5
:104D8000260033131F011343F3FF3377E300B318F7
:104D9000180133E7E800639FF70550C98506E39AD9
:104DA000C6FD18C11307F00F6375B70454412146BF
:104DB000854E3D4F930F800293028004414EB3987D
:104DC000CE0033F715016392E8021317260001178E
:104DD0003313EF001343F3FFB376D3003317E80028
:104DE000D98E639DF701232A15010506E319C6FD37
:104DF00054C18280E39457FA10C94DB7E39757FE28
:104E000023281501DDB708456D8D3335A00082805C
:104E10000CC982804CC98280B707014063570504E2
:104E2000DC4F135705019376F7001316050137077A
:104E3000300041823378E500635C05046319E802C1
:104E4000138706018D46B396E60093C6F6FFF58FED
:104E500089C91357550112073317E600D98F6357D5
:104E60000504370701405CCF8280DC435DBF131728
:104E7000B500635607000D47B316D700F9B71357AF
:104E8000550112073317E6001347F7FFF98FC9B72B
:104E90006312E8023708014083264800370700F113
:104EA0007D17F98F758F2322E800C5F5370701407C
:104EB0005CC382801317B500635C07000D4733178E
:104EC000D7001347F7FF7D8FB707000FD98FF1BFCA
:104ED0001357550112073317E600E5B723AAA18639
:104EE00082809387418794430347050089E683477F
:104EF0002500920731A8944305466391C604834771
:104F000025000346150092076314D60093E707F8BF
:104F1000B7E600E093F7F70FBA962380F640854690
:104F2000935757003397E6005441ADC69387070463
:104F30008A07B7E600E0B69798C382808C4389461B
:104F40006393D50283461500834725006365D60029
:104F50008A06B69779BF9386E6038A06B69793F7D3
:104F6000F70F920765B790438D46631ED6008346C0
:104F70001500834725006364D6008606D9BF938653
:104F8000C6078606E1BF94439147E39AF6F8834744
:104F9000150085B79387070661BFB7160240DC424C
:104FA00051777D17F98F5D8DC8C282803717024017
:104FB0005C439146B18B6385D700A1466386D706D3
:104FC000B7177A00938707201CC1371602405C424E
:104FD00037070020130707009183BD8BBA9783C65C
:104FE00007001C41B3D7D7005CC15442A1829D8AFF
:104FF000BA9683C60600B3D6D70014C55442AD8214
:105000009D8A369703470700B3D7E7005CC558422F
:1050100039839376370013878180369703470700DB
:10502000B3D7E7021CC982805C4354434167C983FC
:10503000F98E37F7FF1F0327C770BD8B890713163B
:10504000170163480600454601476392C702C947F6
:1050500039A809476389E7023D476388E70241476A
:105060006388E702454601476393C700C14785E669
:10507000B746024083A60680C18A8DC6B7167A005D
:105080009386062025A00147D9B70547B547C5B780
:105090000147BD47E9BFB7160240D4421396E60068
:1050A000E35E06FCB7163D0093860690B387D702F1
:1050B0001CC101DF1C41858301BF99C53717024020
:1050C0005C4B5D8D48CB8280B7170240D84B1345AF
:1050D000F5FF798DC8CB828099C5371702401C4FE8
:1050E0005D8D08CF8280B7170240984F1345F5FFBA
:1050F000798D88CF828099C5371702405C4F5D8DCE
:1051000048CF8280B7170240D84F1345F5FF798DFD
:10511000C8CF828099C5371702405C475D8D48C76C
:105120008280B7170240D8471345F5FF798DC8C76D
:10513000828099C5371702401C4B5D8D08CB828059
:10514000B7170240984B1345F5FF798D88CB8280C5
:105150004111B737014006C622C4138707C0631E3A
:10516000E50005648545130504806D378145130509
:1051700004802244B240410171BF93870740631805
:10518000F50085450965793781450965DDB7B7576C
:105190000140138707C0631AE500854537050800FD
:1051A000953F814537050800E9B7631AF500854545
:1051B0003705100085378145370510005DBFB707FB
:1051C0000040631BF50085450545A537814505452C
:1051D0002244B2404101B1BF938707406318F500F4
:1051E00085450945B93781450945DDB7B717004001
:1051F000138707806318E500854511451D3F8145EC
:105200001145F9B7138707C06318E50085452145A7
:105210000D37814521456DBF6318F5008545414532
:10522000093F814541456DB793870740631BF500F2
:10523000854513050002EFF0DFEF814513050002FD
:1052400041BFB24022444101828083570500373775
:105250000140930607C0C207C1836300D504B706A7
:105260000040630CD502938606406308D502B7164A
:105270000040138606806302C502938606C0630E53
:10528000D50013070740630AE5003757014093062E
:1052900007C06304D5006317E50003D7250093F723
:1052A000F7F8D98F37170040630DE5001307074063
:1052B0006309E50093F7F7CF03D76500C207C18301
:1052C000D98F2310F50083D745002316F50283D725
:1052D00005002314F502B7370140138707C0630E9A
:1052E000E50093870740630AF500B757014013872D
:1052F00007C06304E5006316F50083C78500231823
:10530000F5028547231AF50082808357050203D6EC
:10531000050003D82500C207C183F99BC207C183DA
:105320002310F50283570502835645000357850174
:10533000C207C183420741831377C7F8518F03D651
:105340008500F59BC20633660601D18F37360140D2
:10535000130806C0C182630E050113060640630AE6
:10536000C50037560140130806C0630405016313E6
:10537000C50203D6A500DD9B03D8E500D18F03D677
:105380004500ED9B93F6F6CFD18F03D6C50033666B
:105390000601D18E2312D500231CE50003D765003A
:1053A000231AE5022310F5028280835705026577F0
:1053B0001307F7CFC207C183BD9BC207C183231068
:1053C000F502835705028356450003D88500C207BE
:1053D0001396060183568501C18393F7F7FD758FF8
:1053E00083D605004182A206558F83D62500420749
:1053F0004183B3E606019206D58FB7360140C20756
:10540000138806C0C183630E050193860640630AB4
:10541000D500B7560140138806C063040501631127
:10542000D50483D6A50093F7F7F703D8C5009206F5
:10543000D58F83D64500C207C183920693F7F7FB49
:10544000D58FFD769386F63FF18E03D6E500C20731
:10545000C183336606010A06D18E13960601418286
:105460002312C500231CE50003D76500231CE502B9
:105470002310F50282808357050203D88500C207F6
:10548000C18393F7F7EFC207C1832310F502835757
:105490000502835645000357C501C207139606014E
:1054A000420783D6050041831377C7F8558F83D60B
:1054B0002500C18393F7F7DFB3E60601A206D58F77
:1054C000B7360140C207138806C04182C183630E0C
:1054D000050193860640630AD500B756014013883C
:1054E00006C0630405016312D504FD769386F67F3A
:1054F000F58F83D6A50003D8C500A206D58F83D625
:105500004500C207C183A20693F7F7BFD58FF57692
:10551000FD16F18E03D6E500C207C183336606018E
:105520001206D18E1396060141822312C500231E56
:10553000E50003D76500231EE5022310F5028280F3
:1055400003D7250083D70500D98F03D74500D98F0E
:1055500003D76500D98F03D78500D98F03D7A5005E
:10556000D98F03D7C500D98F2312F50482808357C2
:10557000050091C593E717002310F5008280C2074C
:10558000C183F99BC207C183C5BF8357450491C539
:105590002167D98F2312F5048280C607C583DDBF3A
:1055A0008357C50009C6DD8D2316B500828093C5DB
:1055B000F5FFFD8DD5BF231AB50082808357850086
:1055C000C207C18393F7F7F8DD8D2314B500835725
:1055D000850093E777002314F50082802314B50239
:1055E000231AC500828083570500C207C18393F741
:1055F000F7F8DD8D2310B500828083578500C20740
:10560000C18393F7F7F8DD8D2314B50082808357AB
:10561000050091C593E707082310F5008280C207B3
:10562000C18393F7F7F7C207C183FDB783574500DE
:1056300091C593E717002312F5008280C207C1834A
:10564000F99BC207C183C5BF83578501C207C183C8
:10565000DD9BDD8D231CB500828003578501FD771E
:105660009387F77FF98FA205CD8FC207C183231CD3
:10567000F50082808357C501C207C183DD9BDD8DA4
:10568000231EB5008280035705028547B397B700F4
:1056900093C7F7FFF98F2310F50283570502B3155F
:1056A000B600DD8DC205C1812310B502828003578B
:1056B00005029147B397B70093C7F7FFF98F2310FF
:1056C000F50283570502B315B600DD8DC205C18111
:1056D0002310B5028280835605028547B397B70031
:1056E00093C7F7FFF58F2310F50293F775FF1307A4
:1056F000850199EB8581BA959C4193F7F7F89CC198
:105700009C415D8E90C18280F115C205C181858169
:10571000BA959C4165777D17F98F22069CC1420698
:105720009C414182F9BF83574500C207C18393F76B
:10573000F7F8C207C1832312F50083574500DD8DBA
:105740002312B500828083578500C207C183E19B85
:10575000C207C1832314F50083578500DD8D231410
:10576000B500828083578500C207C18393F7F7F79E
:10577000C207C1832314F50083578500DD8D2314F0
:10578000B5008280835705010355C500ED8F4205A2
:10579000418189C76D8D3335A000828001458280AB
:1057A00093C5F5FFC205C1812318B50082808356D9
:1057B0000501F577FD17F58F83D66500397122DC79
:1057C00006DED58F03D7C5002318F5008356C50024
:1057D000FD779387379FF58F83D645002A842EC6A1
:1057E000D58F83D68500D58F83D6A500D58F231678
:1057F000F50083574501C207C18393F7F7CFD98FCF
:10580000231AF5006808EFF06FFAB7470140938755
:105810000780B245631EF404A2578356C40065474F
:10582000B387E702C206C186984163D5060406071E
:105830000356C4004206B3D7E70213074006418669
:10584000B3D6E702B3F7E7029206635706028E0764
:1058500093872703B3D7E70213F77700B367D7001F
:10586000C207C1832314F400F25062542161828084
:10587000925765B70A076DBF920793872703B3D77F
:10588000E702BD8BD58FE9BF81C98357C500096782
:10589000D98F2316F50082800357C500F977FD17CD
:1058A000F98FC5BF93F5F51F2312B500828003550C
:1058B00005006D8D3335A0008280B707002083A7D7
:1058C000470737177A0013070720B3D7E70293F784
:1058D000F70F238DF1861307803EB387E702239CE1
:1058E000F1868280797122D485452A8437050400A7
:1058F00006D6EFF05F8085452145EFF0EFFD930779
:1059000000402312F100371501408D473EC44C0082
:10591000E147130505C03EC6EFF0CFC222C8375499
:105920000040B70708000C08130504803ECC02CAEB
:10593000231E0100EFF0BFE7130504808545EFF05B
:10594000BFF4B250225445618280011126CAB75477
:10595000004022CC4AC84EC606CEAE8932890144E8
:1059600093840480634A2401F24062444A85D2440D
:105970004249B24905618280930500042685EFF013
:105980001FF37DD9B3878900838507002685050429
:10599000C205C181EFF01FF1F1B71387C1801C432D
:1059A000938601F63E95636BD500B78600209386FB
:1059B000068063E5A60008C33E858280FD57EDBFE3
:1059C000D30605E0594613971600058393577701D0
:1059D000938717F8B6856341F60863C40704370850
:1059E00080001307F8FF3357F7403375D70053068D
:1059F00005E00DC5174500008727C5B0D377F50032
:105A0000530700F05315F7A011C963D60600B3572A
:105A1000F840B385D7001346F7FF6D8E530506F0A7
:105A200082809747000087A7E7ADD377F50053073B
:105A300000F0530605E0D317F7A0EDD3530607E0B7
:105A4000E3DE06FC530605E071DB9747000087A7FD
:105A50002791538607E0D9B7B707807F530605E043
:105A6000E36EF7FAD377A500538607E0530506F0F7
:105A70008280011122E626E406CE5304A520D384B9
:105A8000B520B52001E953859420F2403264A26428
:105A9000056182805385942099285305842075D50B
:105AA000D39784A0EDD3F2403264A2640561828072
:105AB000011122E626E406CE5304A520D384B520A6
:105AC0003D2001E953859420F2403264A2640561CF
:105AD00082805385942021285305842075D5D317BF
