:100000006F40A06513000000130000001300000003
:100010001300000013000000130000001300000094
:100020001300000013000000130000001300000084
:08003000130000007300100032
:100038000000000000000000784200007C42000040
:1000480000000000A04500000000000000000000C3
:10005800A2450000A44500000000000000000000C8
:10006800A645000000000000A845000000000000B0
:10007800AA450000AC450000AE450000B0450000B0
:10008800B2450000B4450000B6450000B845000080
:10009800BA450000BC450000BE4500000243000010
:1000A800C2450000C4450000C6450000C845000020
:1000B800CA450000CC450000CE450000D0450000F0
:1000C800D2450000D4450000D6450000D8450000C0
:1000D800DA450000DC450000DE450000E045000090
:1000E8007E420000E4450000E6450000E8450000C7
:1000F800EA450000EC450000EE450000F045000030
:10010800F2450000F4450000F6450000F8450000FF
:10011800FA450000FC450000FE45000000460000CE
:10012800024600000446000006460000084600009B
:100138000A4600000C4600000E460000104600006B
:10014800124600001446000016460000184600003B
:100158001A4600001C4600001E460000204600000B
:1001680022460000244600002646000028460000DB
:100178002A4600002C4600002E46000030460000AB
:10018800324600003446000036460000384600007B
:100198003A4600003C4600003E460000404600004B
:1001A800424600004446000046460000484600001B
:1001B8004A4600004C4600004E46000050460000EB
:1001C80052460000544600005646000058460000BB
:1001D8000000000000000000000000000000000017
:1001E8000000000000000000000000000000000007
:0801F8000000000000000000FF
:100200003D432A876373C3029377F700BDEFADE5E3
:10021000937606FF3D8ABA960CC34CC30CC74CC7F5
:100220004107E36BD7FE11E28280B306C3408A0622
:100230009702000096966780A6002307B700A306E2
:10024000B7002306B700A305B7002305B700A30432
:10025000B7002304B700A303B7002303B700A3022A
:10026000B7002302B700A301B7002301B700A30022
:10027000B7002300B700828093F5F50F93968500B1
:10028000D58D93960501D58D61B79396270097027A
:10029000000096968682E78086FA9680C1171D8FA9
:1002A0003E96E374C3F8A5B7397185451305D007A9
:1002B00006DE22DC26DA4AD84ED652D456D25AD09E
:1002C0005ECE62CCEF405052B71401408D679387E9
:1002D00007A0930A80044C00138504402312F10008
:1002E00056C6231301002314010023150100EF401B
:1002F00070160D446149930700704C00138504800B
:100300002312F1004AC622C4EF40D014F9774C0002
:10031000138504C02312F1004AC622C4EF40901393
:100320009307E00F4C00138504802312F10002C6EE
:10033000EF4050124C00138504C02312810002C606
:10034000EF405011054C4C0037150140231281013C
:1003500002C6EF403010370538808545130505206B
:10036000EF40901CB729014091674C00138509802C
:100370002312F1004AC622C4EF40D00D114AE17B9E
:100380004C00138509802312710152C622C4EF402C
:10039000700C85450945EF403019930700104C005B
:1003A000138504C02312F1004AC622C4EF40900A0C
:1003B000930700202312F1004C00F147138504C07D
:1003C0003EC622C4EF40100985450545EF40D015D3
:1003D000930780024C00138504C02312F1004AC623
:1003E00022C4EF403007C1474C00138504C02312DC
:1003F000F10052C622C4EF40F00593070008414BBC
:100400004C00138504402312F1005AC622C4EF4069
:1004100070041385044093050008EF407010854573
:100420002145EF407010930700024C0013850440F3
:100430002312F1004AC622C4EF40D0019307000402
:100440004C00138504402312F10052C622C4EF4031
:100450007000854537651D00EF40100D89474C0041
:10046000138504402312F1004AC622C4EF40807E67
:100470004C00138504402312810156C6EF40807D55
:10048000854537152000EF40300A856A93870A407A
:100490004C00371501402312F1004AC622C4EF4038
:1004A000607B4C00938A0A8037150140231251016A
:1004B00052C622C4EF40007A4C00138504802312F8
:1004C00071015AC622C4EF40E07813850480A1650B
:1004D000EF401005930730084C0013850980231264
:1004E000F1005AC622C4EF40E076138509808545A5
:1004F000EF405003138509808945EF40B002F25068
:100500006254D2544259B259225A925A025BF24B67
:10051000624C21618280411126C2B72401401385BB
:10052000044085460546894506C622C4EF40202A78
:100530003734014013050480854605469545EF4054
:10054000002913850440854609468D45EF40202843
:1005500013050480854609469945EF4040271385D9
:10056000044085460D469145EF4060261305048002
:1005700085460D469D45EF40802513850440854600
:100580001146A145EF40A02413050480854611467D
:10059000A545EF40C0231385044085461546854593
:1005A000EF40E022130504802244B2409244854685
:1005B0001546A94541016F40802193878188238E8C
:1005C000073082809387818803A7070989476314CE
:1005D000F7006F102075014582809387818883A67C
:1005E000070909476394E60283C7472493F7F70F87
:1005F00089EBB797000087A707275375F5106F1091
:10060000C061B797000087A7C726C5BF82809387C0
:10061000818807A5C73782809387818807A5073817
:1006200082809387818807A587368280411122C402
:1006300006C6493F13878188032407310327073102
:100640009387818809EF03C7C7311377F70F01CB71
:1006500003C7D7311377F70F0DC3A38E073003A756
:10066000070989476316F700EF10406011E1054460
:100670002285B2402244410182800544CDB7011158
:1006800006CE2AE665370DED9387818883A6070994
:10069000094732656396E60283C7472493F7F70F4D
:1006A00099EBB797000087A7072753F5A710F240EB
:1006B00005616F102059B797000087A7C726F5B7C7
:1006C000F24005618280938681F483D7C6007971F8
:1006D00022E653F417D0B797000007A60725B7976F
:1006E000000087A747255374C41022D4138781883C
:1006F0000727C7375374F410B79700008727C73709
:1007000087A6872526D2537787084AD006D64ECEAD
:1007100052CC4B77D77826E44AE24EE0AA84272EC3
:10072000E73683D706018725073807270738D3F729
:1007300017D0B797000013848188D3F7C71007A696
:10074000C72537990000CBF7C758CBF7D7702720BC
:10075000F7385C7713878185D317F4A06388071A6D
:100760005C74D3F78708B797000007A70726D3174D
:10077000F7A06385071A1863B797000087A6472676
:10078000D3F7E70018785377D7101CE3D317F7A0F7
:1007900081C75377E70018E3832904098947639CDD
:1007A000F9182685EF1080572A8A2685EF10A04E6B
:1007B0002685EF10A0512685D309A520EF1080547F
:1007C00026855309A520EF1060542685EF1080542C
:1007D00063173A17832784318507232CF430872742
:1007E000043287240927D3F73701D3A939212720D9
:1007F000F43287274432D3F727012722F4328727A0
:100800008432D3F797002724F4328727C432D3F7F2
:1008100097002726F432EF10C0458727043353F59D
:10082000A7002728A432EF1040458727443353F50B
:10083000A700272AA43287278433D3F79700272CD1
:10084000F4328727C433D3F79700272EF432EF1002
:1008500040438727043453F5A7002720A434EF1022
:10086000E04287274434D39734A153F5A7002722C9
:10087000A43487278434D3F797002724F4348727B8
:10088000C434D3F797002726F43487278437BDC3B1
:100890005375F91893870183986313870183D3F401
:1008A000F4185375E50088E39387C1829C639386AF
:1008B000C182D3F4F40084E3B797000087A78726AA
:1008C000D38797A085CBD30700F053748510D397B7
:1008D000A7A0ADCB872704355375F5002728A4348E
:1008E0008727843553F48700272C843423A00600FF
:1008F00023200700B250225492540259F249624A0E
:100900003264A26412698269456182801C78D3973F
:1009100087A089C71C78D377F408B1B51C63072773
:100920000927D317F7A089C7D3F7E7081CE3ADB5AC
:100930002320070095B5530900F0D3092921232C62
:10094000043071BD8727443553F5A708272AA434FE
:100950008727C43553F48708272E843441BF4111BB
:1009600022C4138481881305042B130600068145D5
:1009700006C6EFF0FF88B797000087A74727B24069
:10098000272CF42E2724F42E224441018280B7978D
:10099000000087A74714B7970000230E05021CE14B
:1009A00087A78714B797000007A7C714B797000059
:1009B0005CE15CE587A70715B797000018E51CE91F
:1009C00087A74715B797000009475CE987A78715F0
:1009D000B797000007A7C715B79700001CED87A7BA
:1009E0000716B797000087A64716B79700001CF1B7
:1009F00087A78716B797000058ED1CF587A7C7167D
:100A0000B797000054F15CF587A70717B797000068
:100A100087A54717B79700001CF987A74713B79713
:100A2000000007A68717B79700004CF930E11CFDBE
:100A300087A7C717B79700002328E5087CE17CE566
:100A400087A70718B7970000379700003CE987A7EA
:100A50004718B797000030E57CE987A78718072675
:100A60004719B79700003CED87A7C71837970000D4
:100A7000B7970000272CC508072687197CED87A7A4
:100A8000071937970000B7970000272EC5080726DB
:100A9000C719379700003CF12724E50A87A70727E5
:100AA0000727071A8547379700007CF13CF57CF54E
:100AB0002324F5082720B50A2722C50A232605087E
:100AC000232A05082726E50A0727471A37070302BE
:100AD0001307F71F232AE50A370704FF1307576098
:100AE000232CE50A379700000720871A3797000064
:100AF0008721C71A379700000721071B3797000087
:100B00000725471B379700002728E50A0727871B7B
:100B1000379700002720F50E2726E50C0727C71B6F
:100B2000379700002724F50E2728E50C0727071C18
:100B300037970000272E050A272CE50C0727471CAE
:100B4000379700008720871C37970000272EE50C79
:100B50002722E50E0727C71C379700002720350CF2
:100B60002728E5100727071D2722250C37970000A7
:100B70002728E50E2724A50C230A050C2726150E89
:100B8000232E051227260510232A050E0727471DA9
:100B900037970000272ED510272CE50E0727871D35
:100BA00037970000272AB510272EE50E0727C71D07
:100BB00037970000232005122720E5100727472636
:100BC000379700000726C726379700002722E51031
:100BD0002724C5100726071E379700000722471E47
:100BE000379700008726871E37970000272CC510EF
:100BF0000726C71E37772F501307F71F2320E5144A
:100C000037970DFF1307473B2322E5143797000062
:100C10008722071F379700002724D5122724551451
:100C20008722471F2726C512272CC51227265514B1
:100C30003797000027224512232A05122728E5129C
:100C400023180514232A0514230C05148722871F53
:100C500037970000272AB516272E55148722C71F5D
:100C6000379700002720C51627265516872207200C
:100C70003D47231EE516379700008725072637973F
:100C800000002322F5182720B5188725472037971D
:100C900000002304F5182726B5182728B518272A99
:100CA000B518872587202308F51A37970000272ACB
:100CB000B51A232205162324051627285516272C96
:100CC0000516232C0518232E05182320051A232288
:100CD000051A2324051A2326051A232C051A232E68
:100CE000051A2720451C2722D51C87258725130791
:100CF000800C2326E51C15472320E51E37970000AE
:100D0000272AC51C0726C720379700002728D51E8D
:100D10002722C51E2724C51E072607213797000056
:100D20002728D5202726C51E0726472137970000EC
:100D3000230CF51E272AC51E07268721379700009A
:100D4000272AF5202720C5200726C721379700002E
:100D500087268726379700002724B51C2720D52211
:100D6000872607222328051C37970000272C351CCF
:100D7000272E251C272EA51E2322052023240520EF
:100D80002726C520232C0520232E05202722E522F7
:100D90002724D522872647221307401F2328E52230
:100DA0000967232EE52241472326E52437970000D3
:100DB0002726D52287268722379700002326F52667
:100DC0002728D5248726C722379700002724F5280F
:100DD000272AD5248726072337970000272AB522FC
:100DE000272ED5248726472339472308E52637971A
:100DF00000002724D5268726872337970000272C35
:100E00001522272AD5268726C7230D472320E52824
:100E100037970000272CD526872607242320052472
:100E20002302052423240524272CA524232005267A
:100E300023220526232E05262722D5282326F5281A
:100E4000B797000087A74724B7970000272CE5280D
:100E50002728F52887A78724232E05282320052A5D
:100E6000272AF5288280411126C213068039814540
:100E70001385818806C622C4EFF08FB81385818858
:100E8000393623AA01821307803E23A0E184054757
:100E900023ACE18223A601842388018423AA018450
:100EA00023A2018423A40184238E01824D3CB797A1
:100EB000000087A7C7241384818889473CF8232A28
:100EC00004063CFC232E04062720F40823220408F1
:100ED00003270409631CF7002244B24093858188EC
:100EE00013858188924441016F008073B24022448F
:100EF000924441018280411122C4373401401305DC
:100F000004C013060004814506C6EF40A06D13051A
:100F100004C005468145EF40E067130504C0014663
:100F20008145EF40A069130504C0130600049145F4
:100F3000EF40406B130504C005469145EF408065C6
:100F4000130504C001469145EF404067130504C0F6
:100F500013060004A145EF40E068130504C00546F0
:100F6000A145EF402063130504C00146A145EF40B1
:100F7000E064130504C093050002EF40A054B240A2
:100F80002244938701C2238A070C41018280397170
:100F900022DC138701C252D4032A07008727473077
:100FA0004AD84ED6D3F7B70022EE26EC4AEA4EE8EE
:100FB00052E606DE26DA2722F730B79900008727A7
:100FC000073007A4892737990000072AC9275374D7
:100FD000F4185309A52007250713B79700008724A5
:100FE000CA145375451187A7C71E8347472FD38956
:100FF000B520D3F4F41093F7F70F5325A5201384ED
:1010000001C2537A4411532A4A2163880712D30537
:101010004A21EF40301B8727CA14D3F4F400D3973A
:10102000A4A099C3230A042E8325CA260145EF30C4
:10103000201C5295034705149307800C1377F70F74
:1010400063C0E724B796000087A7061ED37407D0B5
:10105000B79400008327042FD3F4F41887A704283B
:10106000D3F49400D3F4F41063D5070E2328E42EB0
:10107000272C942E2328E42E07254430872504307E
:101080005325A520D3A5B520EF40F00F87A78927CA
:1010900007278A1453F5A7188727C9275375F51012
:1010A000D317E5A063850716272C942E87258A146D
:1010B00053054A21EF40300DB797000087A747142A
:1010C00007A40428B7970000D377F5180725842FC5
:1010D0008725C42FD3F7F70053F4871087A78728F5
:1010E000537434115374F410EF20306CD327A520BF
:1010F000D39787A0638E07148727842F272EF42E7B
:101100001305C42FEF20B05F1305842FEF20305F4D
:101110008347442F93F7F70F63910716530529214F
:10112000F2506254D2544259B259225A7264E26463
:101130005269C269326A216182808727CA14D3F456
:101140009708D31795A0E38107EE8547230AF42E6D
:10115000E1BD8327042FE30FF7F08327042F130645
:101160004006B307F740635EF606938787F3D3F72D
:1011700007D0530700F05396E7A03DEA37960000EA
:101180008727062707270430D30600F05316D7A079
:101190002DE6379600000727062753A6E7A03DC295
:1011A000872744306352F0068945B3C7B70227202A
:1011B000F430232204300326042F07A7061EB2971B
:1011C0001306800CB3E7C702D3F707D0D3F7E718AD
:1011D00007A70428D3F7F700D3F7E710272CF42E3E
:1011E00051BD1306C0F9E3D4C7F89387870C41B704
:1011F000379600008727C62671B737960000072765
:10120000C62661BF87270430D397F72071BF072513
:10121000842FD3859420EF205059B7970000D3270F
:10122000A52007A74728D397E7A08727842F91C732
:1012300043F48978272C842E95BDB797000007A723
:10124000C7175375E51853F5A708272CA42EB9BD69
:10125000D30700F00727C42FD317F5A091EBB7975A
:10126000000087A707274374F470272E842E49BDFA
:10127000B797000087A7C726FDB70725C42F4DB530
:10128000FD572328F42E8347440F93F7F70FE38786
:1012900007E858408947E313F7E80725840E49B566
:1012A00083C7D18593F7F70F89CB37350140930575
:1012B0000002130505C06F40E02082805D7152DCA2
:1012C0002A8A1305803E86C6A2C4A6C2CAC04EDEC4
:1012D00056DA5AD822EE26EC4AEA56E45ED64EE8B2
:1012E00052E65AE25EE0EF2010393737014083576B
:1012F00007C0930407C093E727002310F7C0835764
:10130000C7C2D30A00F0B79A00008583231AF7C238
:101310008357C7C2B799000053895A218583231C7C
:10132000F7C28357C7C25A898583231EF7C28357E2
:1013300007C0C207C183F59BC207C1832310F7C052
:10134000938701C223AE070A23A0070C6D362685BA
:10135000130600068145EF40E028268505468145B5
:10136000EF404023114626858145EF402025268504
:1013700093050002EF4000152945EF20D02F87A4E8
:101380008A2C07A4C92C9304803E138401C28727AA
:10139000440A83D781F40545D3FAFA00D3F717D06E
:1013A000FD14D3F7971043F98790EF20D02CE5F088
:1013B000232E040AB73401402320040C2D3E13854C
:1013C00004C0130600069145EF40C021138504C0F8
:1013D00005469145EF40001C1146138504C0914518
:1013E000EF40C01D138504C093050002D30400F034
:1013F000EF40400D0545EF209025538A942087A9A2
:101400008A2C07A4C92C130B803E938B81F4938400
:1014100081F48727840A83D74B000545537AFA0065
:10142000D3F717D07D1BD3F73711C3F48748EF20CC
:101430001022E3100BFE232E040A373B0140232029
:10144000040C553C13050BC013060006A145EF40E4
:10145000601913050BC00546A145EF40A0131146C6
:1014600013050BC0A145EF40601513050BC0930594
:101470000002530400F0EF40E0040545EF20301D6A
:10148000D309842087AB8A2C07ABC92C130B803E71
:101490008727C40A83D784000545D3F9F900D3F719
:1014A00017D07D1BD3F7771143F46741EF20301A33
:1014B000E3100BFE232E040A2320040C379B0000AC
:1014C0001D3C87270B121C40D3FAFA185379F918E0
:1014D00027A657191C40D3F4F418537AFA185374FA
:1014E000F41827A847191C40D3F9F918D3779900A5
:1014F000D3F7870027AA3719B797000087AA872351
:101500001C40D3F757195379F908D3F4F4085374EE
:10151000F40827AC27191C4027AE97181C4027A0B9
:10152000871A63060A0C530900F02945EF20B0140E
:10153000D3092921530A292187A48A2C07A4C92C5D
:10154000130A803E03D781F483D6440083D78400F6
:10155000537717D0D3F616D0D3F717D05377971009
:10156000D3F69610D3F7971083D781F405457D1AEB
:10157000D3F6861043778768C3F7877053F717D081
:1015800083D7440053779710D3F757194777877855
:10159000537AEA0053F717D083D784005377971014
:1015A00047778778D3F9E90053F717D05377971027
:1015B000C77787785379F900EF207009E3140AF8A8
:1015C000232E040A2320040CEFF0FF9287270B122E
:1015D0001C40537AFA18D3F9F91827A2471B1C406C
:1015E0005379F91827A4371B1C4027A6271BEFE0C7
:1015F000DFFCB64026440547238EE1849644064925
:10160000F259625AD25A425BB25B7264E264526926
:10161000C269326AA26A126B826B0545616182807F
:101620005571A6C35AD986C7130600319387D18551
:10163000A2C5CAC14EDF2A8952DD56DB22F726F544
:101640004AF34EF18145138501C223800700EFE084
:101650003FBB138401C223A001862320240123223F
:101660000400A9471CC4B797000087A70727854532
:10167000130500202720F430EF301017854513059F
:101680000040EF3070162165EF3030021306000283
:101690008145C808EFE0DFB6372401401305044058
:1016A000EF3040043735014013050580EF308003EB
:1016B000B70706000547BECABED0CC08954713053C
:1016C0000440BACC2304F10682CE82D282D682D8DC
:1016D000EF300006854513050440EF30C01A8545FC
:1016E00013050440EF30400B854513050440EF30EF
:1016F000A009814513050440EF30601A130504402A
:10170000EF30A00A138BD185938401C213090440E2
:101710004A85EF30200A6DFD13050440372401404F
:10172000EF30C009130904404A85EF30C0096DFD50
:1017300013050440EF3020182394A182854513053A
:101740000440EF30C01537340140CC081305048045
:10175000EF20107E854513050480EF30C0128545CB
:1017600013050480EF304002814513050480EF30FB
:10177000001313050480EF304003130904804A85E9
:10178000EF3040036DFD1305048037340140EF3026
:10179000E002130904804A85EF30E0026DFD130575
:1017A0000480EF3040112395A18285451305048004
:1017B000EF30E00E1306C0028145C818EFE05FA4C9
:1017C00085450545B709024002CC02CEEF30E07FE7
:1017D00013858900EF304025B72701409387C74420
:1017E000BEDA938781F4BEDC95473EC193070008BB
:1017F0003EC505699307002013090980930A00027A
:10180000CC18138589003EC789674AC956CB3ECD9F
:1018100082DE02C302CFEF30E0379307B031054AD2
:101820002808231CF100230D010052CEEF30605C2C
:101830000546138589008945EF30803A1385890074
:101840008545EF30A038EFE01FCD9C404A858545A7
:1018500007A4870CEF30407985450545EF30A07A25
:10186000130504C0EF30C07F37050040EF30407FE4
:10187000531704C0231204C2B70700402392070283
:10188000B747950893870740B3C7E702130404C01E
:1018900002D402D62C10228523155103C16982C2BD
:1018A00082C482C682C82318010202DA02DC02DE88
:1018B00023100104938A090637090002130909104D
:1018C000FD192316F102EF3030099147D6C22314D7
:1018D000F1048357C402CC00228585832315F104CB
:1018E00082C6CAC8EF305013CC002285EF30D01C1E
:1018F000CC002285EF301029A1452285EF30B0457C
:10190000A1452285EF305046A1452285EF30704732
:10191000B7170004938707803EDAB70703003EDC61
:101920004C18B707002022853EDE23100104EF305B
:10193000103285452285EF30504085452285EF30B5
:10194000F03D2C103705004002D44ED6230801028A
:10195000EF309000B707FA00CC0037050040BEC456
:10196000D6C282C6CAC8EF30300BCC003705004063
:10197000EF309014854537050040EF30103C854529
:1019800037050040EF309039930500022285EF3093
:10199000704A930500082285EF30B04D8145370528
:1019A0000040EF307036914537050040EF30904AE7
:1019B00085452285EF30902C854537050040EF3076
:1019C000F02B85452285EF30302D854537050040C9
:1019D000EF30902C0546914537050040EF30302D13
:1019E0009307C03208102310F1022311010252D2D2
:1019F000EF30204023AE040A23A0040CEFF0AFCF59
:101A00009C4083C7871893F7F70F63850720EF2063
:101A100040392A89AE8937940000EFE05FBFD304D4
:101A2000A520EFE07FBF07240412379500001305BF
:101A3000452D53758510D3F48410379A0000531642
:101A400015C0D39514C04206C2054182C181EF6022
:101A50002049B797000007A94717EFE05FBB9C40FC
:101A6000DC77D317F5A081EBEFE01FBB9C409C77A0
:101A7000D317F5A0B9CBEFE09FB9D304A520EFE0D1
:101A8000BFB953758510D3F4841013058A2E5316ED
:101A900015C0D39514C04206C2054182C181EF60D2
:101AA00020441305401FEF20003D4A85CE85EF20DE
:101AB000E030D307A9A0D5D337950000054713051B
:101AC000C52F238EE184EF604053EFE05FB45304F1
:101AD000A520EFE07FB48727041237950000130597
:101AE00045315375F5105374F410531615C0D315C2
:101AF00014C04206C2054182C181EF60603E9387F7
:101B0000C18583C707001384C18593F7F70FC1E32D
:101B1000EFE0FFAF5304A520EF20A028B797000007
:101B200087A4072DB797000007A98728B79700005B
:101B300087A947172A8AAE8A5285D685EF200028C2
:101B4000D31795A0A9C70545EF20E032EFE03FACE1
:101B5000D3778508D3A7F720D317F9A089CB2AE636
:101B6000EF20202432652A8AAE8A5304A5204A85B4
:101B7000CE85EF20A024D387A9A0DDDF3795000014
:101B80008547130585322300F400EF600047834743
:101B9000040093F7F70FA1EF37970000872747203E
:101BA0000D469840938647068A06369723240700F9
:101BB0009840938687068A06369723220700984026
:101BC000938607068A0636975CE78507E39BC7FC82
:101BD0003795000013050534EF6020420145EFF012
:101BE000EFED3795000013058535EF600041BE40ED
:101BF0002E442384018685472300FB009E440E4922
:101C0000FA596A5ADA5A4A5B3A74AA741A798A7982
:101C100069618280238E4185D9BF938701C289463D
:101C200094C727A0A70C23AE070A98435325A520E5
:101C3000872747225317F5A009E7D8436303D70046
:101C4000D4C38280938701C20D4798C727A0A70CF1
:101C500098435325A520872747225317F5A011E75E
:101C6000D44309476383E600D8C3828003C5D18586
:101C70008280938701C2E87B8280938701C2A87F1C
:101C80008280938701C207A547088280938701C29B
:101C900007A587088280938701C287A78708B87F36
:101CA000138701C2D3F7E710530700F0D397E7A0DB
:101CB00089EBB797000087A70727286B5375F510A6
:101CC0008280B797000087A7C726C5BF938701C248
:101CD00087A7870807A70708138701C2D3F7E7106C
:101CE000530700F0D397E7A089EBB797000087A7C9
:101CF0000727686B5375F5108280B797000087A798
:101D0000C726C5BF938701C2A86F8280938701C28F
:101D1000A86B8280938701C2E86B8280938701C29F
:101D2000C8438280938701C2C84382801D71CEC69A
:101D300083A9060022FE26FC4AFA4EF807A9890F5D
:101D400056F407A4090FD30AA52087A4C90F87A7B3
:101D5000491587A9460507A50900A2CCA6CAD3F94B
:101D6000A918CAC82EEE32EC36EA3AE836C686CE54
:101D7000D2C452F6AA842E893284D3F9F910EFE046
:101D80005F8A83C78915B246426793F7F70F4B7492
:101D90003441D2666266F26585C7B797000087A7AF
:101DA0000737D397A7A089CFB797000087A74737F2
:101DB00007A0C915D377F9105375050843F9A79003
:101DC00007A5490F87A14607B797000007A0C71EC0
:101DD000D3A7312007A18607379A00005317F0A038
:101DE00011E7D3272120D317F0A099CF53712110E9
:101DF00087278A1C4B74F540C3F131105375A1102D
:101E0000537535185374850007A1861283A7891668
:101E1000537AC4105374D410D1E3886007A004002F
:101E2000872709008720090053754509D3F78708DC
:101E3000D3F0800853704009CBF43449D3F717101E
:101E4000C3770578530500F0C7F49478D31795A0AD
:101E500099C3D304A52087A0040007208A1C4B76D1
:101E6000C9A8D3F040095371011007200900886008
:101E70004B79D95853708008D3F02010537020103C
:101E8000C3F0906043709090C3F0E05027A014001E
:101E9000072609004370E060272009009C609860D5
:101EA000D3A7E7A0D30700F091C39C609CE08727ED
:101EB000090007270900D3A7E7A0D30700F099C3BB
:101EC000872709002720F900886098608727090084
:101ED00087260900D3F7D7104375E578EF30B04176
:101EE00087A7C90F07278A1CD3F7E710D317F5A0D8
:101EF00099CFB7970000986087A687375377D71098
:101F000098E087270900D3F7D7102720F90019C8D0
:101F1000072509008C6053758508D3F54509EF2026
:101F2000A00C08E0F6406644D6444649B649264A25
:101F30007274E2745279C279327AA27A256182800F
:101F400014415841797122D406D622EE26EC4AEA91
:101F50004EE852E689472A846303F72607A4461A07
:101F60009385461A83D781F4138681F4035746007C
:101F7000D3F717D0B797000087A0872C537717D0D7
:101F8000B797000007A0C72C53771710B79700002A
:101F9000C46107A647258357860047770748D3F7CC
:101FA0001710D3F417D0946507224404D3F4141007
:101FB000C7F70740872104045377C710B79700007D
:101FC000C7F40468D3F7C710D30600F037960000B3
:101FD000D3F4C410707C072104080720040887206C
:101FE000C40753714110D3F0401047763610437048
:101FF000300887A0C739B7970000D370101007A02A
:10200000073AD317D6A04371060847700608639DA8
:10201000071A8726062D530600F037970000D317BE
:10202000C1A06398071A07260727D30000F0D3F64C
:10203000C608D31710A06393071A07290727B79775
:10204000000007A0C60C07A1473A87A0860CD3F66C
:10205000260953702010B7970000537926090724EA
:10206000062D5CE45370101087A0873AB7970000E4
:1020700047F48770D3F6161018E844E853749408B0
:102080004BFA065087A6C73AD37497088947537905
:10209000D9102722440353741410D3F4D4104B796D
:1020A0000958272424035440638DF600B797000095
:1020B0006C6C07A987285379B918537A241153F9FE
:1020C0002411B797000087A7C7270725C410B79723
:1020D000000007A6073B5375F5105325A520D3171D
:1020E000C5A063820710B79700000727072787A6B8
:1020F0008726D30500F0EF10B069D309A52053F56A
:10210000941043758450EF30101FB797000007A755
:10211000C71E1C6C146C5377E51043753751D3F709
:10212000A708CBF737691CEC546C486CD3F646090A
:10213000CBF6365154EC0C701C7053F925094B79D1
:102140003979272024031C6C186CD3A7E7A0D30788
:1021500000F091C31C6C1CEC5C6C586CD3A7E7A01E
:10216000D30700F091C35C6C5CEC1C701870D3A7B3
:10217000E7A0D30700F091C31C701CF0586C1C70D2
:10218000584089476314F706B797000087A6473B76
:10219000706C5377D710D3F7D7105377C71038F038
:1021A000786CD3F7E7107CF0230E0408B250225469
:1021B0007264E2645269C269326A456182809385C1
:1021C000861907A4861979BBB797000087A68739B7
:1021D00099B5B797000007A6C72681BDB79700003D
:1021E00007A9C726A9BD8729072711BF20F064F0DA
:1021F00065BF93874186984375714AC106C722C55A
:1022000026C3CEDED2DCD6DADAD8DED6E2D4E6D207
:10221000EAD0EECEA2E6A6E4CAE2CEE052FE56FC3A
:102220005AFA1309170019C36F10C0479387018624
:10223000B736014083D506C023A02701938701C28A
:10224000804303C64714938701863EC61376F60F74
:10225000C189138B01C221C623020B1403D606C009
:10226000136626002390C6C003268B1342064182C4
:10227000239AC6C20326CB1342064182239CC6C2C0
:1022800003260B1442064182239EC6C203D706C012
:1022900042074183759B420741832390E6C0034771
:1022A00004151377F70F19E3E3850560938681F42E
:1022B00003D72600138581F4D37617D003D76600A1
:1022C000537717D003D7A6002722DB0A2724EB0A6F
:1022D000D37717D0138701F32726FB0A0726C418E4
:1022E000D3F6C608072604195377C70807264419EA
:1022F000D3F7C70853F6E6005376F6002720CB0A3B
:1023000027A8D1F258E31CE7034614151376F60FFD
:1023100025CA07A701F35C6314675327E720D3A7F7
:10232000F720D3A6D6205396E7A009CE5396E6A071
:1023300011CA5C631867D3F7E700D397F72027A883
:10234000F1F27DA85316F7A009CE5396F6A011CA54
:1023500087A701F31867D3F7E700D397F7205CE36B
:1023600045A0D315D7A0C9CD5396D7A051CA87A7EA
:1023700001F35863D3F7E700D397F7201CE749A090
:1023800037360140130606C00358460363980534E8
:102390009305401F63F6050103568603E3E9C5FC78
:1023A00037360140835546C3035886C3130606C01B
:1023B00063F80501835546030356C603E3EBC5F6F0
:1023C00037360140835586C3035846C3130606C0FB
:1023D00063F80501835586030356C603E3EAC5F691
:1023E000373601408355C6C3035846C3130606C09B
:1023F00063F805018355C60303568603E3E9C5F672
:1024000087A401F30729470003470415B794000088
:102410001377F70F630307348727840C8726CB05D0
:1024200007A404270357C5000727CB055374F418E6
:10243000D37717D037970000072607253797000076
:10244000D3F7C7100726472537970000CBF7C76893
:102450008726C71ECBF7D770272EFB0402CEA30D0D
:1024600001000347B1011377F70F39C372670347C0
:10247000440D3AF61377F70F01CB37970000872703
:10248000C728D3F7E7083EF68726840DB2770727DB
:10249000040D6810C7F7D7703EF6EF10F02237979B
:1024A0000000B27707270729D3F7E710272CFB0E88
:1024B00003274B00094A379D0000938B01C6138CFC
:1024C00041C6B79D0000B79C0000E313476D3797E6
:1024D000000007274729B79A0000379A0000537970
:1024E000E910D3F7E41007A78A290D475379E910BB
:1024F0000727CA3A2724FB04C3F7E7902726FB04E3
:10250000072B8B0387298B088724CB108727CB0BBE
:1025100053296B213EF287270B0C3EF43C6C272A93
:10252000FB0283268B006398E60068782810531519
:10253000A520EF10302407270B29872A8D2687270F
:102540000B295377270907AA042713050B295305DD
:102550004A214B7757792728EB28EF10B02187279E
:102560004B2907274B2953054A21D3F76709130540
:102570004B29CBF75771272AFB28EF10B01F87276D
:102580008B0B03278B0019CB83268B002147638796
:10259000E60003298B005D191339190003268B000F
:1025A0008D4613771900379900006310D620530722
:1025B00000F0D396E4A0639B061A07A7042787269A
:1025C0004B28530600F0D396C6A06396061A87A63A
:1025D0000427D326D7A0A1C6530700F0D396E9A0BD
:1025E0006390061A07A7042787268B28530600F056
:1025F000D396C6A0639B061887A60427D326D7A028
:1026000099CE07274B29872609265327E720D3167B
:10261000D7A091E60326CB28A54663CDC616A276A1
:1026200007274B05D3A6D620D316D7A0638406165A
:1026300023260B28D30700F0054727229B282724B1
:102640003B2903268B008546631CD6000727CB0D4C
:102650008726441F5327E720D316D7A0639A061472
:1026600015EF83468B2993F6F60F8DCA07278B0843
:1026700089462728EB08032644166307D60003265D
:1026800044168D46631CD60007274B090726C40F46
:1026900087260B094B77C7682728EB08230CEB2804
:1026A00019C36F10800087278B0738780D47D3F741
:1026B000E718272EFB2883268B006396E612D307A4
:1026C00000F05397F4A0E310072237970000072784
:1026D000C726A277D3A7F7206F1060078355C602DD
:1026E0009385C5E0635AB800835586030356C60236
:1026F0001306C6E0E3CDC5C637360140835546C351
:10270000035886C3130606C06378B8008355460392
:102710000356C603E36FB6C037360140835586C300
:10272000035846C3130606C06378B8008355860372
:102730000356C603E36EB6C0373601408355C6C3A1
:10274000035846C3130606C0E37CB8CA8355C603C4
:1027500003568603E376B6CA19B9379700000724F3
:10276000840C8727871CD377F4104DB9B7960000E7
:1027700007A7C626A9B5B796000087A6C62691BDAD
:10278000B796000007A7C62685B5B796000087A6AE
:10279000C626ADB50326CB28A546E3C0C6EA032767
:1027A000CB2805072326EB2871B523260B2871B506
:1027B0000547D30700F0DDB5379700008726C72609
:1027C0006F00507107278B0734785377D718272E5F
:1027D000EB28530700F0272AFB025317F7A03C7899
:1027E000E30F070E3EF403470B0B1377F70F29EFA8
:1027F00007250B065307842087254B0607268B04E5
:102800008726CB0413074B0E938601C23A86130525
:102810000B1093054B10EFF06FD1B7960000872790
:10282000CB1007A6861C07278410D3F787108726AE
:102830004B0E5377C700138741D03A85C3F7E7683B
:102840002722FB0EEF10A06B0327C4138546E3007D
:10285000D70AE30B070C8946E30DD70A9146E30735
:10286000D70E83268B001547E396E610232E0B0226
:1028700003470B0B1377F70F09C787274B0B272E3F
:10288000FB020725CB03DE856285EF109004072944
:10289000440F0327841B3DCFD30700F05327F9A033
:1028A00035EB8724C40F8326841B09472275639662
:1028B000E60087250B08EF103011D37729113797E1
:1028C0000000072747135375A510D3F7E71053F5FA
:1028D000A71043F59450EF3000223797000053F5CE
:1028E000A40887240720D30700F0D3749910D37469
:1028F000951822755317F5A026F2E316070C07A9C1
:102900000427D3F494104775A548EF30C01E5375C3
:1029100025112AF487240B07927707274B0CD3F74E
:10292000E7083EF2D30700F05397F4A0E313070A39
:1029300007A7042787274B0C8726841CD3F7E710AB
:102940002277CBF7D7703EF487270926539797A0B5
:10295000E3070708687C2C7CD3F59518281053757D
:102960009518EF10E05DD30700F0539797A0E304AC
:10297000070868782C782810EF10805C28786C782D
:10298000EF10D005D304A5205325A5204810EF1043
:10299000605E12755375A51047F59450EF30A01581
:1029A0002810EF10205D9277530500F0681027265D
:1029B000FB02A2772728FB0203290B00072A4B04FE
:1029C00087290B0487274B03D3A7F7203EF68725DB
:1029D0008905EF10E05687278B040727CB0437972C
:1029E00000005377EA10C3F7F970272AFB06872700
:1029F000CB0407278B045377EA10C7F7F970272C0D
:102A0000FB06872709160727CB0707264B078726CC
:102A1000CB075377C708CBF7E768272EFB06872736
:102A2000091607270B0807268B0787260B085377FD
:102A3000C708CBF7E7680727072A2720FB0887275F
:102A400049125397E7A06304077C327787278D26C6
:102A500007258B035317F7A06317077A5375E518FB
:102A60005325A520872749125397A7A06301077A0A
:102A700087A6042787254912072789125386D6205F
:102A8000EF10005187278912D304A5205317F5A012
:102A900019C387248912872ACB0287274B07072966
:102AA0000B03D3FAFA0887278B070727CB0853793C
:102AB000F9088727090CD3F7FA10C3F79770272274
:102AC000FB0807270B098727090CC377F970272410
:102AD000FB08EFD01FB58727490C034789151377EB
:102AE000F70F05C737970000072707375317A7A029
:102AF00009CF37970000072747378726C91553F7AF
:102B0000E7105375D508C377A778D3F4F4100727D7
:102B1000CB08D377F4101147D3F48410C3F49A7020
:102B200027269B0807270B09C377F9702728FB087E
:102B300083268B006362D77203274916630E0770E2
:102B4000379700008727090F8726871C0727490F1B
:102B50000726090F89464377D7788727490F032728
:102B60004916CBF7D7606307D76A8D46630FD76ADC
:102B700085466313D76E87260B0807260B13D3F6FB
:102B8000C61053F7E6108726CB0707260B13D3F69C
:102B9000C610D3F7F610D30600F007264B08D3F77C
:102BA000D70013094B085377E6084A852722EB081C
:102BB00007278B08D3F7E7000727CA3A2724FB0823
:102BC000B2778724CB0507294B08D3F7E710D3F456
:102BD000971053859420EF10E03987274B0807277B
:102BE000CB08D3F72709D3F7E7002726FB080725EB
:102BF0004B0887274B085375F51047F59450EF2085
:102C0000906F93058B082E8507298B08EF1080366F
:102C100087278B0807270B0953859420D3F72709AB
:102C2000938581CA4A85D3F7E7002728FB08EF1070
:102C300040440727CB0587A78D28D3F7E718072738
:102C40004B0853F7E7102724EB0607278B08D3F729
:102C5000E7102726FB0687270B0707270B0753A735
:102C6000E7A0D30700F019C387270B072728FB0627
:102C700087270B078726CB0607270B07D3F7D7082D
:102C800087A68C1ECBF7D7702728FB0687274B0219
:102C900087268B0407278B020726CB045377C710A0
:102CA000C3F7D770272CFB0407254B0707274B07D3
:102CB00087278B0787268B07D3F7D7104375E578CF
:102CC000EF2070632728AB040725CB070727CB0726
:102CD00087270B0887260B08D3F7D7104375E578AD
:102CE000EF207061272AAB0487278B068724CB0649
:102CF0008725CB0607298B06D3749A10138501C24A
:102D000053792A11C7F4F94843F9B99053859420AF
:102D1000D3052921EFF0CFA287270B0607274B0603
:102D200037370140130707C05377EA10C3F7F9702C
:102D30002722FB0887274B0607270B06537AEA1042
:102D4000C7F9F9A0D30700F0538627A127243B0930
:102D500023200B26230E0B2423020B2623240B26D1
:102D60000357C70293160701C182D3F616D05387C3
:102D700097A0630C06520727CA3A5377E9106304F9
:102D8000074E5397E4A06317075A53F5E408054626
:102D90005375D510D31515C007A58A295375A910E9
:102DA0005375D510531715C03385E6002E95058150
:102DB000B306B5403387E640232CCB0837360140B5
:102DC000835506C04205418193E525002310B6C016
:102DD000C206231AA6C2C1824207231CD6C241835F
:102DE000231EE6C2035706C0130906C042074183EB
:102DF000759B420741832310E6C003474B0D1377B1
:102E0000F70F25E71306000681454A85EF20807DF0
:102E1000054681454A85EF20E077114681454A8580
:102E2000EF20C0791306000691454A85EF20807B8C
:102E3000054691454A85EF20E075114691454A8542
:102E4000EF20C07713060006A1454A85EF20807960
:102E50000546A1454A85EF20E0731146A1454A8504
:102E6000EF20C0750547230AEB0C87278B08530713
:102E700000F05397E7A0631F077687A40427072570
:102E80008B0607278B068727CB068726CB06D3F72B
:102E9000D7104375E578EF20104653759510379796
:102EA00000008724C73953759518272CAB02872754
:102EB000CB0307278B1087268B105327D7A05307E8
:102EC00000F019C307278B102724EB1007278B105E
:102ED0006810D3F7E7083EF6EF1060028727CB10A3
:102EE0000727CB1053A7E7A0D30700F019C3872704
:102EF000CB102726FB108726CB1032768727C410ED
:102F000007278B1013058B10C3F7C768C377F470BE
:102F10002724FB10EF00B07E87270411B276072725
:102F2000CB10D3F7D710C377F4702726FB10872771
:102F3000CB10272AFB080725CB038725CB2AEF10C8
:102F4000C0063797000087258727379700002AF0AB
:102F50000725C72A0810EF00B07E027787270B13DA
:102F600007268D265377871887260B13D3F7E70894
:102F7000CBF7C7682728FB1287270B1387260B136D
:102F800053A7D7A0D30700F019C387270B1327280F
:102F9000FB1207244B1387274B135374E40807A72E
:102FA0008C1E4B74E478272A8B1287274B13072734
:102FB0004B1353A7E7A0D30700F019C387274B1380
:102FC000272AFB1287270B13379700000725872333
:102FD000D3A7F7201305CB1053F5A710EF00907976
:102FE0008727CB0348102726FB2A8727CB033EF2EF
:102FF000EF00F07037970000872707281275379782
:1030000000005375F5008727072B3797000053758D
:10301000F518872707245375F510EF20B00B5317C9
:1030200005C01546814528103AD4EF003073A256EA
:1030300003270B2B2328DB2A3387E6408D4663D0FA
:10304000E65C69178326CB116810BA96232EDB1035
:1030500003260B129356F741358F158F3297232095
:10306000EB12379700000727472B8727CB03D3F7AF
:10307000E7103EF6EF0050653797000087274421A0
:103080000727872B5317F7A0B277630F0756379799
:103090000000072744218726C72B5317D7A06305B5
:1030A00007562722FB120145EFD0EFE1B24723A0DC
:1030B0000700BA402A449A440A49F659665AD65A31
:1030C000465BB65B265C965C065DF64D3664A66490
:1030D00016698669727AE27A527B49618280D39757
:1030E000F7206FF02FF007A704276FF08FDE8727F8
:1030F000CB0F272EFB0203470B0B1377F70F63123F
:1031000007F683268B001D47638DE6F402D26FF02D
:103110004FF507254B0ED3058420EFD05FE727221C
:10312000AB0E87274B0EF1B703474B0F1377F70F03
:103130006DDB87278B0E272EFB028727CB0E2720E0
:10314000FB1087270B0F2722FB1075B787274B0E25
:10315000272EFB0203474B0F1377F70F49DF232876
:103160000B26232C0B26232E0B2A23200B2C230A81
:103170000B0E51B783268B0019476387E600832621
:103180008B0021476394E6028727CB0C07270B2A85
:1031900013050B2AC3F787702720FB2AEF00305650
:1031A00087270B2A272EFB026FF08FEC83268B00DC
:1031B0001D476387E60083268B002547639AE6EA6E
:1031C00087270B0DC5B7379700000729C7266FF073
:1031D0004FF3379700000727C7266FF0AFF53797F3
:1031E00000008727C7295397F4A0630E07F6287CB1
:1031F0006C7C6FF06FF628786C785315A520D3950A
:10320000B5206FF04FF707A504276FF0BF8587A49F
:10321000042751B087270B138726C90FD3F6D71081
:10322000D30700F05387F7208DBA87260B080726AF
:103230000B13D3F6C61053F7E6108726CB070726E5
:103240000B13D3F6C610D3F7F61087260B130726F9
:10325000C90FD3F6C61091B2D30600F0D387D6209B
:103260005387D6201DBA379700008727472AD37780
:10327000F9105397F4A05DCF87A58A295395942020
:103280000D46D375B9105375E508D3F5D5105375B0
:10329000D510539715C0531515C0BA96AA968582B6
:1032A0003387E6403305A74001BE0725CA3A537568
:1032B000A91021C7379700008727472AD377F9102D
:1032C0005397F4A051EF379700008725872A53F5CD
:1032D000A40019465379B9105375D5105379D910F4
:1032E000531715C0D31519C03385B6003A9505811B
:1032F0003307E540B306B740C1B45397A4A02DC32C
:1033000053759508379700005375D510531515C0A0
:103310000725872A5375A9105375D510531615C064
:103320003387C6002A970583B306C7403385A64076
:10333000114659B4D3F7E400537597080946D3F7FB
:10334000D7105375D510539717C0531515C0B30533
:10335000A700AE9685823385A6403307E540A9BC19
:10336000D3979420D3F7A70853F5A408D3F7D71021
:103370005375D510539517C0531615C03307C500A4
:10338000369705833305A740B306C54015462DB4CF
:1033900023240B0423260B04232A0B06D30500F059
:1033A000232C0B06232E0B0623200B085385B52058
:1033B000232C0B0423280B04138501C2232A0B049E
:1033C000EFE01FB807250B065307842087254B061F
:1033D00007268B048726CB04938601C201469305FA
:1033E0004B1013050B10EFE07F9407258B2A8727DE
:1033F0004B1087254B2A07270B105375F500D3F583
:10340000E500EF00703E2722AB0E8727CB10872602
:10341000841007274B0ED3F7871013054B0EC3F705
:10342000D7702722FB0EEF00902D87270B10272245
:10343000FB2A87274B102724FB2A0327C413630E7C
:103440004719636AEA146302071A0725CB03DE856E
:103450006285EF00104823200B26230E0B24230245
:103460000B2623240B268727CB032726FB2607259D
:103470004B0487250B0407270B0607264B068727D7
:103480004B0687260B065376A610D3F6A610437676
:10349000B760C7F6B76887274B0807274B0853A7BD
:1034A000E7A0D30700F019C387274B082722FB08A2
:1034B00087278B0807278B0853A7E7A0D30700F0BF
:1034C00019C387278B082724FB0807274B08872762
:1034D0004B0809475377C70807A68C1E4B77C77858
:1034E0002722EB0887278B0807278B08D3F7D708F5
:1034F000CBF7C7702724FB0887274B082726FB0834
:1035000087278B082728FB08832644166387E60055
:10351000832644160D47639CE60087274B098726C0
:10352000C40F07270B09CBF7D7702728FB080727FD
:10353000CB0587A78D28D3F7E71807274B085377C4
:10354000F7102724EB0607278B08D377F7102726D9
:10355000FB0687270B0707270B0753A7E7A0D3070F
:1035600000F019C387270B072728FB0687270B07BF
:103570008726CB0607270B0707A50427D3F7D7080D
:1035800087A68C1E13050B07CBF7D7702728FB06E1
:10359000EF00501ED9B89146E3E9E6EA87274B0EC3
:1035A000379700008726C727272EFB028727CB10D7
:1035B0003797000007278417D3F7D7108726873758
:1035C0005377D710D3A7F7205397E7A0E30F07E669
:1035D00023280B26232C0B268DBD07254B0ED30548
:1035E0008420EFD0DF9A2722AB0E87274B0E272EA1
:1035F000FB02A1BD379700008724C72649B0F956C2
:10360000E352D7A419073DBC379700000727072CC2
:10361000BA86B79500005396E7A021CE07274B2B1B
:1036200087A6452C5397E6A029C737970000872621
:1036300044218727C72807278B2BD3F7D718D3F721
:10364000E700272CFB2A13058B2BEF00F007B2773E
:1036500013054B12272AFB2A07278B2B8726442189
:10366000D3F7D718D3F7E7002722FB12EF00D005D6
:103670001DBC07A7452C5317F7A071DB87274B2BE1
:1036800007A7062C5397E7A079D337970000872622
:1036900044210727C72887278B2B5377D718D3F7C1
:1036A000E70845B723A0270129B4379700008726EC
:1036B000472653A7F7205379D908531727A105E7C1
:1036C00007278B08D30600F05317D7A06316078E81
:1036D00087A6042707278B0770785377D7105317CF
:1036E000C7A06301078E0729CB0587A904270727F1
:1036F0008B038724441153F9291953F7E7088727C7
:1037000084118726CB2937970000D3F78710072A23
:10371000C726D3853921D3F4E41053054A21D3F7C2
:10372000E7101305CB29C3F72769272EFB28EF00E5
:1037300030018727CB29D385392153054A21C3F48A
:103740002479681026F6EF00A07F3878B277D3F797
:10375000E7106FF02F895D7193878186CAC003C916
:10376000070086C6A2C4A6C24EDE22F626F44AF29E
:103770004EF01379F90F630F090023800700B6405C
:10378000264496440649F2593274A2741279827919
:1037900061618280938701C29843138401C2B79408
:1037A00000008727C71B9C4307A74722D397E7A0A2
:1037B000CDE35C400947639EE70818446302F702C3
:1037C00018448D47630EF70018448547630AF700D5
:1037D0008727440C1C4007A74722D317F7A0B5CB77
:1037E000072504291C4087A7071CB797000007A7D7
:1037F000072AD397E7A0638C07441C4087A7071CC0
:103800001C40B86FD3F7E710D397A7A06381074494
:103810001C40D30600F087A5071C1C40BC6F1C4051
:10382000D3F5F510B06F1C4007A7C71BEF0040761B
:10383000B797000087A707272724F40C1C4087A709
:10384000042607A7471CD317F7A063850740272244
:10385000A40C87A50426530500F01305840C8125CC
:103860008347040B93F7F70FC9E75C40094763925E
:10387000E70818446302F70218448D47630EF70007
:1038800018449547630AF700184499476306F70000
:1038900018449D47631FF7048727040C1C40D3A7D7
:1038A000F72007A74722D397E7A0A1C78727C40B14
:1038B0001C40D3A7F72007A74722D397E7A095CBB3
:1038C0008727440C1C4007A74722D397E7A095C33E
:1038D0008727840C07A70426D397E7A099CBA9478D
:1038E0001CC423220400232E040A2320040CEFD03E
:1038F0008FE01C40D30500F087A447131C4087A924
:1039000087131C4007A90713072504081C405325EB
:10391000A52090631C4087A607121C4087A7C711EB
:103920001C40D3F6F61007A7C7119D251C402AE4BA
:10393000280007A5C7113D2D1C40226703A7C71308
:103940003AE68547630FF70053F634018727042CC6
:103950005375C9005375F508D31795A0638A0730CE
:1039600002C622656800B799000029251C7C530710
:1039700000F03264D317F7A087A749385374F410C6
:103980006383073087A704261305C40F5374F4100C
:103990008727C40FD3F78700272EF40E8D2387A621
:1039A000493822678727C4105377D710D3A7F72049
:1039B000D397E7A0638C072C8727C42B1C4007A74D
:1039C000C712D397E7A06383072C8727C42B07A7C9
:1039D0000426D3F7E700272EF42A18448D47630EF8
:1039E000F700584089476310F7021C7C07A704269C
:1039F000D3A7F720D397E7A099C7232E042A232023
:103A0000042C230A040E8727C42B1C4007A7C712C7
:103A1000D307F7A08DC3B79700008727042C07A70B
:103A20000721D387E7A081CBD3F534010549D3F52E
:103A300025012720B42C584089476304F700232030
:103A4000042C8727042C530700F05317F7A06306B4
:103A500007268727840E5374F4002724840E6301FD
:103A600009021C7C37970000D317F7A08727840E24
:103A700007278727638B0722D3F7E7002724F40E55
:103A80001305840EAD298547230AF40E8727042CDD
:103A900007A70426D3F7E708530700F02720F42CE4
:103AA000232E042A0725840E1C7CD397E7A063915C
:103AB0000720B797000087A707385375F5006C08F3
:103AC0002808012D1C40726787A7C70FD3F7E7109E
:103AD00062672726F40E1C4087A7C70FD3F7E710AD
:103AE0002728F40E584089476311F70687274408B2
:103AF0003EE8872784083EEA7C783EEC3C7C3EEE3C
:103B000062656267F267F266D3F7D7104375E578AE
:103B1000EF10707E872744115375F500272AA410F3
:103B200042654267D267D266D3F7D7104375E5780E
:103B3000EF10707C872784115375F500272CA41093
:103B40008327041185072328F410087C7C6C1C4013
:103B5000D30600F05325A52007A70710B79700004C
:103B600007A68738D385D6205376F61815211C4032
:103B700087A747101C4007A70710D3F7E710D317F4
:103B8000F5A089CB1C4007A547101C4087A707104C
:103B90005375F510B797000087A707201305C430A9
:103BA0005375F5102724A4123C6838688726C43062
:103BB0001C40D3F7E71007A7070FB797000007A629
:103BC000C738B79700005377C7104BF7E76827242B
:103BD000E43007218430872104137864072204101D
:103BE0002C6487224410346407200406D3F5551052
:103BF0007064872044060725C430477747585377B9
:103C00003710C3F727705377161043F70670D3F7B2
:103C1000E70807A70739D3F7E71007A70426C3F774
:103C2000E7502726F4301C4007A5870F1C4087A5C6
:103C3000870FB797000087A78723B7970000D3F5B2
:103C4000F51087A747395375F510DD2C0DBE5305C8
:103C500000F0EDB61C401305440C07A7471C1C40A0
:103C6000D3F7E71887A5C71BD3F5B7100D2CD5B62A
:103C7000D317C5A0E38707CED30600F0D3859420E1
:103C8000012E2AE6F9B953148420EDB98727C42BF5
:103C9000530700F0D317F7A0E38107D48727C42B7D
:103CA00007A70426D3F7E7083DB3D3F7E708F9B32E
:103CB000B797000087A7C73709B58727440E272481
:103CC000F40E230A040E39BD41118545094506C687
:103CD00022C426C24AC0EF10003385451145EF10BB
:103CE000803285452145EF100032B707002083A4BC
:103CF0004707B727B700938707B0B3D4F402370953
:103D0000004013050940814537140040EF10807EC4
:103D1000130504808145EF10E07D130504C0814543
:103D2000EF10407D054613050940FD14C204C18013
:103D3000A685EF10807B1305094093050002EF1064
:103D4000700F1305048093050002EF10007813052F
:103D500004809D45EF1010101305048093050002A8
:103D6000EF10500D130504C093050002EF10E0752D
:103D7000130504C09D45EF10F00D1305094085455E
:103D8000EF10C06F130504808545EF10206F1305F9
:103D900004C02244B24092440249854541016F105B
:103DA000E06DB707004003D54742B717004003D77F
:103DB000478283D547C24207598D8280411106C68A
:103DC00022C426C22A84AE84E93FAA87018DB3B7F4
:103DD000A700858D9D8DEF10107EB797000087A7F7
:103DE000873BB240224492445375F51841018280CA
:103DF000411106C622C426C22A84AE845D37AA8732
:103E0000018DB3B7A700858D0D66130606EE8146BA
:103E10009D8DEF202000B2402244924441018280D7
:103E2000411106C622C426C22A84AE849D3FAA87B9
:103E3000018DB3B7A700858D1306004B81469D8D7C
:103E4000EF10507DB24022449244410182804111E2
:103E500022C44AC24EC006C62A84A1372A89AE8926
:103E60004A85CE85753FE36D85FEB24022441249F6
:103E7000824941018280411122C44AC24EC006C615
:103E80002A8405372A89AE894A85CE859537E36D20
:103E900085FEB240224412498249410182801C6160
:103EA000D397A7A091CBD3F7B700D397A7A099C377
:103EB0001CE1828008E18280D317F5A0FDDBD3F7F7
:103EC000B708D317F5A0E5B77971B797000022EED0
:103ED00007A4C72808612AC6D305842006D6EF1098
:103EE000D035D30700F03245D317F5A091E7B25093
:103EF00008E172644561828053758500CDBFB79734
:103F0000000007A7C73DB797000087A6072B1C61D5
:103F1000D397E7A091EFB797000007A70728B797B7
:103F2000000087A6072B1C61D317F7A091E78280BA
:103F3000D3F7D7001CE1E1BFD3F7D7081CE1E5B701
:103F40001C61D397F5A081C70CE105458280D3970A
:103F5000A7A099C308E1D5BF0145828018416356E7
:103F6000E60010C185473E8582808147E35DB7FE4C
:103F70000CC1CDBF1C61D317F5A081C708E1054571
:103F800082805315A520D397A7A0EDFB0145828021
:103F90005375B5085377D7085376B6085375E510AF
:103FA0005375C5185375D5008280B79700005375B7
:103FB000B50887A7C73DB797000007A7072BD317FA
:103FC000F5A089EFB797000087A70728B7970000EB
:103FD00007A7072BD397A7A089E782805375E50031
:103FE000F9BF5375E508FDB7B797000007A7C73BB2
:103FF000D327A520D30600F0B7960000D3F7E7003B
:10400000D387B6A03797000053F7B700B1C3D3F7F3
:10401000F50887A6063CB7970000D3F7E7180727EF
:10402000473CD3F5F710C3F5D57007A70738C3F59C
:10403000F570D3A7B5A099E3D30500F0D30700F03E
:10404000D317F5A099C3D395B5205385B5208280A9
:10405000D3F7B70887A6063CB7970000D377F718C1
:104060000727473CD3F5F710C3F5D57007A7873C62
:104070007DBF9C61797122EED3F7F7105304A52020
:1040800008612AC62EC44375A57806D6EF10B0265F
:10409000B797000007A7073ED3278420A245D31770
:1040A000E5A0324599C35305E720D397A7A085C360
:1040B000D3F7A71818615377F71018E18861054501
:1040C000D377F5109CE1B25072644561828001455E
:1040D000DDBFB797000087A7C73DB797000007A7C8
:1040E000072BD317F5A0DDEF37960000B797000038
:1040F0008727062807A7072BD397A7A0DDE7B79741
:10410000000087A6073D530700F037970000D376DD
:10411000D5108727C73CD318E5A03A88D377F51088
:10412000D3F6A610BE863797000063830808D3F73E
:10413000D700D397E7A01CE1BDCF4FF7F7788726CC
:10414000873DB7970000C377D7781CE187A7473D25
:104150005375F50087270628D397A7A099C7B79767
:10416000000087A7072B5375F50887A6063D530760
:1041700000F08727C83CD376D510D317E5A0D377B6
:10418000F510D3F6A6109DCBD3F7D700D397E7A0B1
:104190009CE185CB4FF7F7788726873DC377D778A3
:1041A0009CE182805375E5002DBF5375E508A9B7E2
:1041B000D3F7D708BDBF47F7F77851B7D3F7D7087C
:1041C000F1B747F7F778C9BFD327A52053A7B52084
:1041D000D397E7A099E35385B5208280D327A52004
:1041E00053A7B520D317F7A099E35385B520828054
:1041F0007971860522D44ECE094456CA5AC893898D
:104200001500B71A0140056B26D24AD052CC5EC6C3
:1042100033CA890206D6014401498144FD5B938A71
:104220000A40130B0B80FD196397790333252A018C
:10423000B3249A0033248A000605458D0A04418D73
:10424000B250225492540259F249624AD24A424B25
:10425000B24B45618280930500205685EF00B02B5C
:10426000DA85AA945685EF00102B2A998965568520
:10427000EF00702A2A9445BF7300203001A05D71C1
:1042800091453705004082E686E48AE28EE012FE20
:1042900016FC1AFA1EF82AF62EF432F236F03AEE2E
:1042A0003EEC42EA46E872E676E47AE27EE0EF101F
:1042B000403E85476310F502914537050040EF10F9
:1042C000003FEFC0FFFD37250140894513050580FC
:1042D000EF0010253660A660166186617272E27288
:1042E0005273C2733275A275127682767267E26774
:1042F0005268C268326EA26E126F826F6161730083
:1043000020305D71094582E686E48AE28EE012FE85
:1043100016FC1AFA1EF82AF62EF432F236F03AEEAD
:104320003EEC42EA46E872E676E47AE27EE0EF00AE
:1043300030128547631EF5000945EF009011EFD05C
:104340005FEB37250140894513050580EF00901D7F
:104350003660A660166186617272E2725273C27331
:104360003275A275127682767267E2675268C26809
:10437000326EA26E126F826F6161730020305D71C8
:10438000094586C6A6C2CAC04EDE22F626F44AF207
:104390004EF052EEA2C4EF007025EF10E0427165BE
:1043A00013050520EF10E044B707002083A5470759
:1043B000379500001305C53EEF309032EFF0DF90E7
:1043C0001305401FEFF03FABEFB01FEE1305401F8A
:1043D000EFF07FAAEFC03FA981450145EFF05FA450
:1043E00023A6A18681450145EFF09FA3B797000062
:1043F00007A4871CB797000087A4473EB797000023
:1044000087A90727B797000007A9071CB7970000DF
:1044100007AA873E856923A8A1869384C18613894C
:10442000018793897938254401458145EFF05F9FE5
:1044300083270900B307F5406378F4002320A9001F
:104440002AC6EFF04FB132459C40B307F540E3FD7B
:10445000F9FC370400208727040788C013040407E9
:10446000D3F78700D387F4A09DE71CE00860D3074B
:10447000A9A08DC753054A21EFC06FA01C608C40D6
:1044800037950000539617C01305C53F4206418279
:10449000EF30102549BF27203401C9BFEFC0EF938B
:1044A000F1BFB71702409843B706FFF841111367F1
:1044B000170098C3D84337060200758FD8C39843B6
:1044C000B706F7FEFD16758F98C39843B706FCFF35
:1044D000FD16758F98C3D843B70681FFFD16758FFB
:1044E000D8C39843B70600ECFD16758F98C33707FD
:1044F000FF0098C723A6070202C402C69843C166FC
:10450000558F98C3B716024005679C42F18F3EC68F
:10451000A24785073EC4B24781E7A247E397E7FE7B
:10452000B71702409C431397E70063570706854778
:104530003EC632478547631FF704B7170240D8438A
:10454000B706C1FFFD16D8C3D843D8C3D8431367F5
:104550000740D8C3D843758FD8C3D843B7061D00CA
:10456000558FD8C39843B7060001558F98C3984319
:1045700093166700E3DD06FED843B7160240719B31
:10458000D8C3D84313672700D8C32147DC42B18B77
:10459000E39EE7FE4101828002C661BF01A001A047
:1045A00001A001A001A001A001A001A001A001A003
:1045B00001A001A001A001A001A001A001A001A0F3
:1045C00001A001A001A001A001A001A001A001A0E3
:1045D00001A001A001A001A001A001A001A001A0D3
:1045E00001A001A001A001A001A001A001A001A0C3
:1045F00001A001A001A001A001A001A001A001A0B3
:1046000001A001A001A001A001A001A001A001A0A2
:1046100001A001A001A001A001A001A001A001A092
:1046200001A001A001A001A001A001A001A001A082
:1046300001A001A001A001A001A001A001A001A072
:1046400001A001A001A001A001A001A001A001A062
:1046500001A001A001A001A001A097C1FF1F9381AB
:104660006121174100201301E1991755000013053E
:10467000A5FD97C5FF1F9385E5981386818263FA90
:10468000C5008322050023A0550011059105E3EA2A
:10469000C5FE13858182938501F66377B5002320DB
:1046A00005001105E36DB5FEFD42739002BCED42BD
:1046B00073904280B76200009382820873A0023038
:1046C00097C2FFFF9382829793E232007390523039
:1046D000EFF03FDD970200009382A2CA739012347C
:1046E000730020304111B727014006C69387074069
:1046F000631EF500854513050020EF00B0128145CB
:1047000013050020B24041016F00D011B7370140BE
:1047100093870780631BF500854513050040EF0074
:104720007010814513050040F1BFB2404101828005
:104730005C413707F1E01307F7EF944D7D8F9C4103
:10474000D58FD44DD58FD441A206D58FD98F5CC1DA
:104750001C4537F7F1FF1307D77FD4457D8F9C4960
:10476000D58F94458606D58FD98F1CC55C553707E4
:1047700010FF7D177D8F83C74501FD1793F7F70F56
:10478000D207D98F5CD582801C4589C593E7170075
:104790001CC58280F99BEDBF1C4589C593E70710B6
:1047A0001CC5828093F7F7EFE5BF1C4593E78700B0
:1047B0001CC5828008450D81058982801C4593E7D0
:1047C00047001CC582800845098105898280A5476C
:1047D00063F7B7048D47138765FF3307F702032894
:1047E000C5009D47B397E70093C7F7FFB3F70701ED
:1047F000B396E600DD8E54C5994763E3C704954739
:104800007D163306F6025859FD47B397C70093C784
:10481000F7FFF98F3396C5005D8E50D982800D4722
:104820003387E502032805019D47B397E70093C747
:10483000F7FFB3F70701B396E600DD8E14C96DBF2D
:10484000B14763E2C702954765163306F602185969
:10485000FD47B397C70093C7F7FFF98F3396C5009D
:104860005D8E10D9828095474D163306F602585555
:10487000FD47B397C70093C7F7FFF98FB395C500FE
:10488000DD8D4CD582801C4591C537071000D98F2E
:104890001CC582803707F0FF7D17F98FD5BF5C41BB
:1048A00091C537070004D98F5CC18280370700FCAF
:1048B0007D17F98FD5BF797122D426D206D62A84E6
:1048C00023040100A5448347810063F1F406230417
:1048D0000100A54621468347810063F9F6082315A8
:1048E00001002304010095468347810063F7F61019
:1048F0000357A1008357A10099460D46B3F7D7028D
:104900000565B2502254130505809254B3D7C702EF
:104910003357D702BA97C207C1832315F1008357D3
:10492000A10045611D8D4205418582801C4493E7AD
:1049300087001CC42285EFF0FFE76DFD1C4493E760
:1049400047001CC42285EFF01FE86DFD78448347C3
:10495000810014108607B6972396E7FE83478100EF
:10496000850793F7F70F2304F100B1BFA3040100FB
:1049700083479100637AF60083478100850793F7A8
:10498000F70F2304F10081BF034791008347910093
:104990000C100607850786072E97AE970357C7FEAC
:1049A00083D7C7FE63F3E704834791008607AE977A
:1049B00083D7C7FE2315F100834791000347910079
:1049C00085078607AE9783D5C7FE93171700181083
:1049D000BA972396B7FE834791000357A1000C10A6
:1049E00085078607AE972396E7FE834791008507E4
:1049F00093F7F70FA304F100A5BF834781001010C0
:104A00000357A10089078607B29783D7C7FEBA97D5
:104A1000C207C1832315F10083478100850793F7FF
:104A2000F70F2304F100C9B51C4141677917F98FCD
:104A30001CC1232005002322050023240500B707FD
:104A4000024023260500138787006317E500D8433B
:104A50001367F700D8C382801387C7016316E50088
:104A6000D8431367070FFDB7138707036318E500E3
:104A7000D8438566938606F0558FE9BF13874704B0
:104A80006315E500D843BD66C5BF13878705631668
:104A9000E500D843B7060F00C5B71387C7066316EE
:104AA000E500D843B706F000C1BF138707086316B7
:104AB000E500D843B706000FC1B7138787406319D5
:104AC000E50003A747401367F70023A2E740828071
:104AD0001387C7416317E50003A747401367070F14
:104AE000EDB793870743631BF500B707024003A7A1
:104AF00047408566938606F0558FC1BFB7070240D1
:104B0000138747446316E50003A74740BD66EDB72A
:104B1000138787456317E50003A74740B7060F00D3
:104B2000E1BF1387C7466317E50003A74740B706F1
:104B3000F000D9B7138707486317E50003A747407C
:104B4000B706000F55BF138707496319E50003A790
:104B5000474D1367F70023AAE74C82801387074A63
:104B60006317E50003A7474D1367070FEDB71387DA
:104B7000074B6319E50003A7474D8566938606F04A
:104B8000558FD1BF1387074CE319E5FC03A7474DA9
:104B9000BD66FDB71C4161773D0794517D8F9C45F3
:104BA000D58F9449D58FD449D58F944DD58FD44D79
:104BB000D58FD451D58F9455D58FD98F1CC1DC4555
:104BC0005CC19C411CC5DC415CC582801C4189C51F
:104BD00093E717001CC1828041677917F98FDDBF09
:104BE0001C4101C6DD8D0CC1828093C5F5FFFD8D92
:104BF000DDBF9317350063DA0700B707024083A7CC
:104C000007407D8D3335A00082809317250063D740
:104C10000700B707024083A7074DE5B7B707024073
:104C20009C43C5B79317350063D70700B707024009
:104C300023A2A74082809317250063D70700B707F8
:104C4000024023AAA74C8280B7070240C8C38280D3
:104C50004DB7C9BF9C4513F7070113F8F70001C70B
:104C6000D8413368E80083D5050013F7F50F39C341
:104C700018418146854E3D4F930F80029302800478
:104C8000214E3396DE00B3F8C500631116039398E6
:104C9000260033131F011343F3FF3377E300B318E8
:104CA000180133E7E800639FF70550C98506E39ACA
:104CB000C6FD18C11307F00F6375B70454412146B0
:104CC000854E3D4F930F800293028004414EB3986E
:104CD000CE0033F715016392E8021317260001177F
:104CE0003313EF001343F3FFB376D3003317E80019
:104CF000D98E639DF701232A15010506E319C6FD28
:104D000054C18280E39457FA10C94DB7E39757FE18
:104D100023281501DDB708456D8D3335A00082804D
:104D20000CC982804CC98280B707014063570504D3
:104D3000DC4F135705019376F7001316050137076B
:104D4000300041823378E500635C05046319E802B2
:104D5000138706018D46B396E60093C6F6FFF58FDE
:104D600089C91357550112073317E600D98F6357C6
:104D70000504370701405CCF8280DC435DBF131719
:104D8000B500635607000D47B316D700F9B71357A0
:104D9000550112073317E6001347F7FFF98FC9B71C
:104DA0006312E8023708014083264800370700F104
:104DB0007D17F98F758F2322E800C5F5370701406D
:104DC0005CC382801317B500635C07000D4733177F
:104DD000D7001347F7FF7D8FB707000FD98FF1BFBB
:104DE0001357550112073317E600E5B723AAA1862A
:104DF00082809387418794430347050089E6834770
:104E00002500920731A8944305466391C604834761
:104E100025000346150092076314D60093E707F8B0
:104E2000B7E600E093F7F70FBA962380F640854681
:104E3000935757003397E6005441ADC69387070454
:104E40008A07B7E600E0B69798C382808C4389460C
:104E50006393D50283461500834725006365D6001A
:104E60008A06B69779BF9386E6038A06B69793F7C4
:104E7000F70F920765B790438D46631ED6008346B1
:104E80001500834725006364D6008606D9BF938644
:104E9000C6078606E1BF94439147E39AF6F8834735
:104EA000150085B79387070661BFB7160240DC423D
:104EB00051777D17F98F5D8DC8C282803717024008
:104EC0005C439146B18B6385D700A1466386D706C4
:104ED000B7177A00938707201CC1371602405C423F
:104EE00037070020130707009183BD8BBA9783C64D
:104EF00007001C41B3D7D7005CC15442A1829D8AF0
:104F0000BA9683C60600B3D6D70014C55442AD8204
:104F10009D8A369703470700B3D7E7005CC5584220
:104F200039839376370013878180369703470700CC
:104F3000B3D7E7021CC982805C4354434167C983ED
:104F4000F98E37F7FF1F0327C770BD8B890713162C
:104F5000170163480600454601476392C702C947E7
:104F600039A809476389E7023D476388E70241475B
:104F70006388E702454601476393C700C14785E65A
:104F8000B746024083A60680C18A8DC6B7167A004E
:104F90009386062025A00147D9B70547B547C5B771
:104FA0000147BD47E9BFB7160240D4421396E60059
:104FB000E35E06FCB7163D0093860690B387D702E2
:104FC0001CC101DF1C41858301BF99C53717024011
:104FD0005C4B5D8D48CB8280B7170240D84B1345A0
:104FE000F5FF798DC8CB828099C5371702401C4FD9
:104FF0005D8D08CF8280B7170240984F1345F5FFAB
:10500000798D88CF828099C5371702405C4F5D8DBE
:1050100048CF8280B7170240D84F1345F5FF798DEE
:10502000C8CF828099C5371702405C475D8D48C75D
:105030008280B7170240D8471345F5FF798DC8C75E
:10504000828099C5371702401C4B5D8D08CB82804A
:10505000B7170240984B1345F5FF798D88CB8280B6
:105060004111B737014006C622C4138707C0631E2B
:10507000E50005648545130504806D3781451305FA
:1050800004802244B240410171BF938707406318F6
:10509000F50085450965793781450965DDB7B7575D
:1050A0000140138707C0631AE500854537050800EE
:1050B000953F814537050800E9B7631AF500854536
:1050C0003705100085378145370510005DBFB707EC
:1050D0000040631BF50085450545A537814505451D
:1050E0002244B2404101B1BF938707406318F500E5
:1050F00085450945B93781450945DDB7B7170040F2
:10510000138707806318E500854511451D3F8145DC
:105110001145F9B7138707C06318E5008545214598
:105120000D37814521456DBF6318F5008545414523
:10513000093F814541456DB793870740631AF500E4
:10514000854513050002F53D81451305000249BF61
:10515000B240224441018280835705003737014025
:10516000930607C0C207C1836300D504B706004099
:10517000630CD502938606406308D502B71600403B
:10518000138606806302C502938606C0630ED500AF
:1051900013070740630AE50037570140930607C02D
:1051A0006304D5006317E50003D7250093F7F7F8EC
:1051B000D98F37170040630DE500130707406309D7
:1051C000E50093F7F7CF03D76500C207C183D98FF6
:1051D0002310F50083D745002316F50283D7050079
:1051E0002314F502B7370140138707C0630EE500AB
:1051F00093870740630AF500B7570140138707C03C
:105200006304E5006316F50083C785002318F502E3
:105210008547231AF50082808357050203D60500CF
:1052200003D82500C207C183F99BC207C18323109D
:10523000F502835705028356450003578501C207CF
:10524000C183420741831377C7F8518F03D6850086
:10525000F59BC20633660601D18F3736014013082D
:1052600006C0C182630E050113060640630AC5002D
:1052700037560140130806C0630405016313C502D5
:1052800003D6A500DD9B03D8E500D18F03D64500EA
:10529000ED9B93F6F6CFD18F03D6C500336606019A
:1052A000D18E2312D500231CE50003D76500231AF5
:1052B000E5022310F5028280835705026577130704
:1052C000F7CFC207C183BD9BC207C1832310F5027C
:1052D000835705028356450003D88500C2071396FD
:1052E000060183568501C18393F7F7FD758F83D639
:1052F00005004182A206558F83D6250042074183CF
:10530000B3E606019206D58FB7360140C20713886F
:1053100006C0C183630E050193860640630AD5006B
:10532000B7560140138806C0630405016311D50414
:1053300083D6A50093F7F7F703D8C5009206D58F5B
:1053400083D64500C207C183920693F7F7FBD58F3A
:10535000FD769386F63FF18E03D6E500C207C18342
:10536000336606010A06D18E139606014182231286
:10537000C500231CE50003D76500231CE5022310AC
:10538000F50282808357050203D88500C207C183D6
:1053900093F7F7EFC207C1832310F5028357050285
:1053A000835645000357C501C207139606014207FD
:1053B00083D6050041831377C7F8558F83D6250020
:1053C000C18393F7F7DFB3E60601A206D58FB736A0
:1053D0000140C207138806C04182C183630E0501E4
:1053E00093860640630AD500B7560140138806C06D
:1053F000630405016312D504FD769386F67FF58F6D
:1054000083D6A50003D8C500A206D58F83D6450054
:10541000C207C183A20693F7F7BFD58FF576FD16B5
:10542000F18E03D6E500C207C1833366060112067A
:10543000D18E1396060141822312C500231EE5007A
:1054400003D76500231EE5022310F502828003D7EF
:10545000250083D70500D98F03D74500D98F03D7FF
:105460006500D98F03D78500D98F03D7A500D98FC1
:1054700003D7C500D98F2312F50482808357050016
:1054800091C593E717002310F5008280C207C183FE
:10549000F99BC207C183C5BF8357450491C52167E6
:1054A000D98F2312F5048280C607C583DDBF8357D9
:1054B000C50009C6DD8D2316B500828093C5F5FFB2
:1054C000FD8DD5BF231AB500828083578500C207A2
:1054D000C18393F7F7F8DD8D2314B500835785005A
:1054E00093E777002314F50082802314B502231A72
:1054F000C500828083570500C207C18393F7F7F880
:10550000DD8D2310B500828083578500C207C183DB
:1055100093F7F7F8DD8D2314B500828083570500DB
:1055200091C593E707082310F5008280C207C18365
:1055300093F7F7F7C207C183FDB78357450091C5BD
:1055400093E717002312F5008280C207C183F99BFD
:10555000C207C183C5BF83578501C207C183DD9BD5
:10556000DD8D231CB500828003578501FD7793876D
:10557000F77FF98FA205CD8FC207C183231CF500E9
:1055800082808357C501C207C183DD9BDD8D231E49
:10559000B5008280035705028547B397B70093C7CC
:1055A000F7FFF98F2310F50283570502B315B600F4
:1055B000DD8DC205C1812310B5028280035705022B
:1055C0009147B397B70093C7F7FFF98F2310F50200
:1055D00083570502B315B600DD8DC205C1812310C6
:1055E000B5028280835605028547B397B70093C7FB
:1055F000F7FFF58F2310F50293F775FF1307850169
:1056000099EB8581BA959C4193F7F7F89CC19C4131
:105610005D8E90C18280F115C205C1818581BA95E8
:105620009C4165777D17F98F22069CC142069C41FB
:105630004182F9BF83574500C207C18393F7F7F84A
:10564000C207C1832312F50083574500DD8D231265
:10565000B500828083578500C207C183E19BC207E2
:10566000C1832314F50083578500DD8D2314B50015
:10567000828083578500C207C18393F7F7F7C2077B
:10568000C1832314F50083578500DD8D2314B500F5
:105690008280835705010355C500ED8F4205418186
:1056A00089C76D8D3335A00082800145828093C506
:1056B000F5FFC205C1812318B5008280835605011C
:1056C000F577FD17F58F83D66500397122DC06DE8C
:1056D000D58F03D7C5002318F5008356C500FD7785
:1056E0009387379FF58F83D645002A842EC6D58FA2
:1056F00083D68500D58F83D6A500D58F2316F500D8
:1057000083574501C207C18393F7F7CFD98F231A77
:10571000F5006808EFF08FFAB747014093870780DC
:10572000B245631EF404A2578356C4006547B3878D
:10573000E702C206C186984163D5060406070356F0
:10574000C4004206B3D7E702130740064186B3D62A
:10575000E702B3F7E7029206635706028E079387C4
:105760002703B3D7E70213F77700B367D700C20761
:10577000C1832314F400F250625421618280925755
:1057800065B70A076DBF920793872703B3D7E70270
:10579000BD8BD58FE9BF81C98357C5000967D98FF4
:1057A0002316F50082800357C500F977FD17F98F9E
:1057B000C5BF93F5F51F2312B50082800355050080
:1057C0006D8D3335A0008280B707002083A747077F
:1057D00037177A0013070720B3D7E70293F7F70FBD
:1057E000238DF1861307803EB387E702239CF18661
:1057F0008280797122D485452A843705020006D635
:10580000EFF07F80854513051002EFF0EFFD854531
:105810002145EFF06FD1930700022312F1003715F5
:1058200001408D473EC44C00E147130505403EC68C
:10583000EFF04FC222C837440040B70708000C08F9
:10584000130504403ECC02CA231E0100EFF01FE7FF
:105850001305044085458137B2502254456182804A
:10586000011126CAB744004022CC4AC84EC606CE13
:10587000AE893289014493840440634A2401F24092
:1058800062444A85D2444249B24905618280930507
:1058900000042685253765DDB387890083850700E9
:1058A00026850504C205C181EFF0BFF0F9B7138763
:1058B000C1801C43938601F63E95636BD500B78685
:1058C00000209386068063E5A60008C33E8582809B
:1058D000FD57EDBFD30605E0594613971600058323
:1058E00093577701938717F8B6856341F60863C429
:1058F0000704370880001307F8FF3357F740337564
:10590000D700530605E00DC517450000872745B0B1
:10591000D377F500530700F05315F7A011C963D6EC
:105920000600B357F840B385D7001346F7FF6D8ED6
:10593000530506F082809747000087A767ADD377AD
:10594000F500530700F0530605E0D317F7A0EDD399
:10595000530607E0E3DE06FC530605E071DB9747DC
:10596000000087A7E790538607E0D9B7B707807F85
:10597000530605E0E36EF7FAD377A500538607E0F8
:10598000530506F08280011122E626E406CE530478
:10599000A520D384B520B52001E953859420F24099
:1059A0003264A2640561828053859420992853054E
:1059B000842075D5D39784A0EDD3F2403264A264DD
:1059C00005618280011122E626E406CE5304A5205B
:1059D000D384B5203D2001E953859420F240326400
:1059E000A264056182805385942021285305842078
:1059F00075D5D31794A0EDD3F2403264A26405614B
:105A00008280D30705E009458607858395C7370758
:105A100080FF3E97B706007F1145636FD7003707B9
:105A200080009386F7FF79170D456377D700370518
:105A30008080AA9713B5170082805D71A2C422FEF0
:105A400026FC86C6CAC2CEC0D304A5205384B52086
:105A5000A922938701818043FD57630AF406D32767
:105A600084A0B5C7D3A794A0BDC3D30700F0D327A4
:105A7000F4A0B1CF5385942085473EC497470000DA
:105A8000938747993EC602D4EF10507D530584207A
:105A90002A89AE892AC82ECAEF10507C2ACC2ECE75
:105AA0001DCC014681463285B685EF1000112AD003
:105AB0002ED289476317F402EF20004293071002A9
:105AC0001CC1A25785E702559255EF20A007B640AA
:105AD0002644164986497274E274616182804AD014
